{
  "_format": "hh-sol-artifact-1",
  "contractName": "Locker",
  "sourceName": "contracts/dao/Locker.sol",
  "abi": [
    {
      "inputs": [
        {
          "internalType": "address",
          "name": "_operatorMsg",
          "type": "address"
        },
        {
          "internalType": "address",
          "name": "tokenAddr",
          "type": "address"
        },
        {
          "internalType": "uint256",
          "name": "_duration",
          "type": "uint256"
        }
      ],
      "stateMutability": "nonpayable",
      "type": "constructor"
    },
    {
      "inputs": [
        {
          "internalType": "uint256",
          "name": "_value",
          "type": "uint256"
        },
        {
          "internalType": "uint256",
          "name": "_lockDuration",
          "type": "uint256"
        },
        {
          "internalType": "address",
          "name": "_to",
          "type": "address"
        }
      ],
      "name": "createLockFor",
      "outputs": [
        {
          "internalType": "uint256",
          "name": "",
          "type": "uint256"
        }
      ],
      "stateMutability": "nonpayable",
      "type": "function"
    },
    {
      "inputs": [],
      "name": "tokenId",
      "outputs": [
        {
          "internalType": "uint256",
          "name": "",
          "type": "uint256"
        }
      ],
      "stateMutability": "view",
      "type": "function"
    },
    {
      "inputs": [
        {
          "internalType": "address",
          "name": "_from",
          "type": "address"
        },
        {
          "internalType": "address",
          "name": "_to",
          "type": "address"
        },
        {
          "internalType": "uint256",
          "name": "_tokenId",
          "type": "uint256"
        }
      ],
      "name": "safeTransferFrom",
      "outputs": [],
      "stateMutability": "nonpayable",
      "type": "function"
    }
  ],
  "bytecode": "0x60c06040523480156200001157600080fd5b5060405162004793380380620047938339810160408190526200003491620001d6565b6001600081815581546001600160a01b0319166001600160a01b038616908117909255604051859291907f3ccbb406b985dd76fe05e172b432487a2ff9fe4257642d3acc350f167cb1d577908290a3506001600160a01b03821660a052437f54cdd369e4e8a8515e52ca72ec816c2101831ad1f18bf44102ed171459c9b4fa55427f54cdd369e4e8a8515e52ca72ec816c2101831ad1f18bf44102ed171459c9b4f955608081905260136020527f317681100331673b27c2499894e78912f138ae85f2dd790e454ff96a89cf2d77805460ff1990811660019081179092557f5829b1f18259a9cdcd4268c3b072804d2f8e3dedbb1b883db1fa2055bb26d84f8054821683179055635b5e139f60e01b60009081527f65cb089fa41783e5af12e88573d882f263c09532a373334f0b809825d5a904ab80549092169092179055600c546040519091309160008051602062004773833981519152908290a4600c54604051600090309060008051602062004773833981519152908390a450505062000217565b80516001600160a01b0381168114620001d157600080fd5b919050565b600080600060608486031215620001ec57600080fd5b620001f784620001b9565b92506200020760208501620001b9565b9150604084015190509250925092565b60805160a0516144f0620002836000396000818161097601528181610ed40152818161130901526122300152600081816104d60152818161187d0152818161268a015281816126d001528181612b7a01528181612b9b01528181612be6015261303801526144f06000f3fe608060405234801561001057600080fd5b50600436106103a45760003560e01c80637116c60c116101e9578063c1f0fb9f1161010f578063e7e242d4116100ad578063f52a36f71161007c578063f52a36f71461094e578063fc0c546a14610971578063fd4a77f114610998578063fdabc986146109ab57600080fd5b8063e7e242d4146108e1578063e985e9c5146108f4578063ec32e6df14610930578063ee00ef3a1461094357600080fd5b8063c87b56dd116100e9578063c87b56dd14610888578063d1c2babb1461089b578063e0514aba146108ae578063e58f5947146108c157600080fd5b8063c1f0fb9f1461085a578063c23697a81461086d578063c2c4c5c11461088057600080fd5b806395d89b4111610187578063b2383e5511610156578063b2383e55146107d9578063b45a3c0e146107ec578063b52c05fe14610834578063b88d4fde1461084757600080fd5b806395d89b4114610424578063981b24d0146107a05780639d507b8b146107b3578063a22cb465146107c657600080fd5b80638da5cb5b116101c35780638da5cb5b146107595780638fbb38ff14610761578063900cf0cf1461078457806390e056ab1461078d57600080fd5b80637116c60c146106f55780638ad4c447146107085780638c2c9baf1461074657600080fd5b80632e1a7d4d116102ce57806348ee26a31161026c578063570ca7351161023b578063570ca7351461068e578063626944df146106965780636352211e146106b957806370a08231146106e257600080fd5b806348ee26a3146106315780635312ea8e1461064457806354fd4d50146106575780635633e0a61461067b57600080fd5b8063418517c6116102a8578063418517c6146105bd57806342842e0e146105d0578063430c2081146105e357806344acb42a146105f657600080fd5b80632e1a7d4d1461055a5780632f745c591461056d578063313ce567146105a357600080fd5b80630ec84dda1161034657806318160ddd1161031557806318160ddd146105015780631fdbfd511461050957806323857d511461052757806323b872dd1461054757600080fd5b80630ec84dda146104ab5780630f589d63146104be5780630fb5a6b4146104d157806317d70f7c146104f857600080fd5b806305ae4f8c1161038257806305ae4f8c1461041157806306fdde0314610424578063081812fc14610455578063095ea7b31461049657600080fd5b806301ffc9a7146103a9578063047fc9aa146103eb578063059f8b1614610402575b600080fd5b6103d66103b7366004613930565b6001600160e01b03191660009081526013602052604090205460ff1690565b60405190151581526020015b60405180910390f35b6103f460025481565b6040519081526020016103e2565b6103f4670de0b6b3a764000081565b6103f461041f36600461394d565b6109ce565b610448604051806040016040528060058152602001641d9953919560da1b81525081565b6040516103e291906139c7565b61047e6104633660046139da565b6000908152600e60205260409020546001600160a01b031690565b6040516001600160a01b0390911681526020016103e2565b6104a96104a4366004613a08565b610a01565b005b6104a96104b936600461394d565b610aea565b6104a96104cc366004613a34565b610bda565b6103f47f000000000000000000000000000000000000000000000000000000000000000081565b6103f4600c5481565b6103f4610d38565b610514630784ce0081565b604051600f9190910b81526020016103e2565b6103f46105353660046139da565b60046020526000908152604090205481565b6104a9610555366004613a51565b610d48565b6104a96105683660046139da565b610d59565b6103f461057b366004613a08565b6001600160a01b03919091166000908152601060209081526040808320938352929052205490565b6105ab601281565b60405160ff90911681526020016103e2565b6104a96105cb366004613a34565b610ff0565b6104a96105de366004613a51565b61115a565b6103d66105f1366004613a08565b611175565b61060961060436600461394d565b611188565b60408051600f95860b81529390940b60208401529282015260608101919091526080016103e2565b60015461047e906001600160a01b031681565b6104a96106523660046139da565b6111cf565b610448604051806040016040528060058152602001640312e302e360dc1b81525081565b6105146106893660046139da565b611340565b61047e611383565b6103f46106a43660046139da565b60009081526003602052604090206001015490565b61047e6106c73660046139da565b6000908152600d60205260409020546001600160a01b031690565b6103f46106f0366004613a34565b6113f1565b6103f46107033660046139da565b61140f565b6106096107163660046139da565b600660205260009081526040902080546001820154600290920154600f82810b93600160801b909304900b919084565b6103f461075436600461394d565b61146f565b61047e61147b565b6103d661076f3660046139da565b600a6020526000908152604090205460ff1681565b6103f460055481565b6104a961079b366004613a34565b6114c5565b6103f46107ae3660046139da565b61166f565b6104a96107c136600461394d565b611811565b6104a96107d4366004613aa0565b611a14565b6104a96107e736600461394d565b611a99565b61081a6107fa3660046139da565b60036020526000908152604090208054600190910154600f9190910b9082565b60408051600f9390930b83526020830191909152016103e2565b6103f461084236600461394d565b611b8f565b6104a9610855366004613aef565b611bd0565b6104a96108683660046139da565b611cfd565b6103d661087b366004613a34565b611d61565b6104a9611dd0565b6104486108963660046139da565b611e10565b6104a96108a936600461394d565b611ebd565b6103f46108bc36600461394d565b612013565b6103f46108cf3660046139da565b60086020526000908152604090205481565b6103f46108ef3660046139da565b61201f565b6103d6610902366004613bcf565b6001600160a01b03918216600090815260126020908152604080832093909416825291909152205460ff1690565b6103f461093e366004613bfd565b612047565b6103f4630784ce0081565b61051461095c3660046139da565b600960205260009081526040902054600f0b81565b61047e7f000000000000000000000000000000000000000000000000000000000000000081565b6104a96109a63660046139da565b612089565b6103d66109b9366004613a34565b600b6020526000908152604090205460ff1681565b600082815260076020526040812082633b9aca0081106109f0576109f0613c36565b600302016001015490505b92915050565b6000818152600d60205260409020546001600160a01b031680610a2357600080fd5b806001600160a01b0316836001600160a01b03161415610a4257600080fd5b6000828152600d60209081526040808320546001600160a01b0385811685526012845282852033808752945291909320549216149060ff168180610a835750805b610a8c57600080fd5b6000848152600e602052604080822080546001600160a01b0319166001600160a01b0389811691821790925591518793918716917f8c5be1e5ebec7d5bd14f71427d1e84f3dd0314c0f7b2291e5b200ac8c7c3b92591a45050505050565b60026000541415610b165760405162461bcd60e51b8152600401610b0d90613c4c565b60405180910390fd5b600260009081558281526003602090815260409182902082518084019093528054600f0b8352600101549082015281610b4e57600080fd5b60008160000151600f0b13610b9e5760405162461bcd60e51b8152602060048201526016602482015275139bc8195e1a5cdd1a5b99c81b1bd8dac8199bdd5b9960521b6044820152606401610b0d565b42816020015111610bc15760405162461bcd60e51b8152600401610b0d90613c83565b610bd08383600084600061213f565b5050600160005550565b60015460408051638da5cb5b60e01b8152905133926001600160a01b031691638da5cb5b9160048083019260209291908290030181865afa158015610c23573d6000803e3d6000fd5b505050506040513d601f19601f82011682018060405250810190610c479190613cc7565b6001600160a01b031614610c9d5760405162461bcd60e51b815260206004820181905260248201527f4f776e61626c653a2063616c6c6572206973206e6f7420746865206f776e65726044820152606401610b0d565b6001600160a01b038116610ce65760405162461bcd60e51b815260206004820152601060248201526f3130b2103732bb9037b832b930ba37b960811b6044820152606401610b0d565b600180546001600160a01b038381166001600160a01b0319831681179093556040519116919082907f3ccbb406b985dd76fe05e172b432487a2ff9fe4257642d3acc350f167cb1d57790600090a35050565b6000610d434261140f565b905090565b610d5483838333612344565b505050565b60026000541415610d7c5760405162461bcd60e51b8152600401610b0d90613c4c565b6002600055610d8b33826123f2565b610d9757610d97613ce4565b6000818152600a602052604090205460ff1615610dc65760405162461bcd60e51b8152600401610b0d90613cfa565b60008181526003602090815260409182902082518084019093528054600f0b835260010154908201819052421015610e395760405162461bcd60e51b8152602060048201526016602482015275546865206c6f636b206469646e27742065787069726560501b6044820152606401610b0d565b8051604080518082018252600080825260208083018281528783526003909152929020905181546001600160801b0319166001600160801b039091161781559051600190910155600254600f9190910b90610e948282613d32565b6002556040805180820190915260008082526020820152610eb89085908590612458565b60405163a9059cbb60e01b8152336004820152602481018390527f00000000000000000000000000000000000000000000000000000000000000006001600160a01b03169063a9059cbb906044015b6020604051808303816000875af1158015610f26573d6000803e3d6000fd5b505050506040513d601f19601f82011682018060405250810190610f4a9190613d49565b610f5657610f56613ce4565b610f5f84612ab1565b60408051858152602081018490524281830152905133917f02f25270a4d87bea75db541cdfe559334a275b4a233520ed6c0a2429667cca94919081900360600190a27f5e2aa66efd74cce82b21852e317e5490d9ecc9e6bb953ae24d90851258cc2f5c81610fcd8482613d32565b6040805192835260208301919091520160405180910390a1505060016000555050565b6001546040805163570ca73560e01b8152905133926001600160a01b03169163570ca7359160048083019260209291908290030181865afa158015611039573d6000803e3d6000fd5b505050506040513d601f19601f8201168201806040525081019061105d9190613cc7565b6001600160a01b0316146110a25760405162461bcd60e51b815260206004820152600c60248201526b3737ba1037b832b930ba37b960a11b6044820152606401610b0d565b6001600160a01b0381166000908152600b602052604090205460ff1615156001146111025760405162461bcd60e51b815260206004820152601060248201526f1059191c995cdcc81b9bc8195e1a5cdd60821b6044820152606401610b0d565b6001600160a01b0381166000818152600b6020908152604091829020805460ff1916905590519182527f127991bbd1c9df376a37f8311f693c9ac6efa87dda46e3518437ffd7d64cd17091015b60405180910390a150565b610d5483838360405180602001604052806000815250611bd0565b600061118183836123f2565b9392505050565b600760205281600052604060002081633b9aca0081106111a757600080fd5b6003020180546001820154600290920154600f82810b9550600160801b90920490910b925084565b600260005414156111f25760405162461bcd60e51b8152600401610b0d90613c4c565b600260005561120133826123f2565b61120d5761120d613ce4565b6000818152600a60209081526040808320805460ff19169055600382529182902082518084019093528054600f0b83526001015490820181905242101561128f5760405162461bcd60e51b8152602060048201526016602482015275546865206c6f636b206469646e27742065787069726560501b6044820152606401610b0d565b8051604080518082018252600080825260208083018281528783526003909152929020905181546001600160801b0319166001600160801b039091161781559051600190910155600254600f9190910b906112ea8282613d32565b60025560405163a9059cbb60e01b8152336004820152602481018390527f00000000000000000000000000000000000000000000000000000000000000006001600160a01b03169063a9059cbb90604401610f07565b6000818152600860209081526040808320546007909252822081633b9aca00811061136d5761136d613c36565b6003020154600160801b9004600f0b9392505050565b6001546040805163570ca73560e01b815290516000926001600160a01b03169163570ca7359160048083019260209291908290030181865afa1580156113cd573d6000803e3d6000fd5b505050506040513d601f19601f82011682018060405250810190610d439190613cc7565b6001600160a01b0381166000908152600f60205260408120546109fb565b600554600081815260066020908152604080832081516080810183528154600f81810b8352600160801b909104900b938101939093526001810154918301919091526002015460608201529091906114678185612b70565b949350505050565b60006111818383612ccc565b60015460408051638da5cb5b60e01b815290516000926001600160a01b031691638da5cb5b9160048083019260209291908290030181865afa1580156113cd573d6000803e3d6000fd5b6001546040805163570ca73560e01b8152905133926001600160a01b03169163570ca7359160048083019260209291908290030181865afa15801561150e573d6000803e3d6000fd5b505050506040513d601f19601f820116820180604052508101906115329190613cc7565b6001600160a01b0316146115775760405162461bcd60e51b815260206004820152600c60248201526b3737ba1037b832b930ba37b960a11b6044820152606401610b0d565b6001600160a01b0381166115b95760405162461bcd60e51b815260206004820152600960248201526830206164647265737360b81b6044820152606401610b0d565b6001600160a01b0381166000908152600b602052604090205460ff161561161b5760405162461bcd60e51b81526020600482015260166024820152754164647265737320616c72656164792065786973747360501b6044820152606401610b0d565b6001600160a01b0381166000818152600b6020908152604091829020805460ff1916600117905590519182527fd0f1faec010b3b1384e0407d8df907b92913d2e83b3407a77051eacebe4fe214910161114f565b60004382111561168157611681613ce4565b60055460006116908483612fa9565b600081815260066020908152604080832081516080810183528154600f81810b8352600160801b909104900b938101939093526001810154918301919091526002015460608201529192508383101561179f5760006006816116f3866001613d66565b8152602080820192909252604090810160002081516080810183528154600f81810b8352600160801b909104900b9381019390935260018101549183019190915260020154606080830182905285015191925014611799578260600151816060015161175f9190613d32565b836040015182604001516117739190613d32565b6060850151611782908a613d32565b61178c9190613d7e565b6117969190613db3565b91505b506117ee565b438260600151146117ee5760608201516117b99043613d32565b60408301516117c89042613d32565b60608401516117d79089613d32565b6117e19190613d7e565b6117eb9190613db3565b90505b611807828284604001516118029190613d66565b612b70565b9695505050505050565b600260005414156118345760405162461bcd60e51b8152600401610b0d90613c4c565b600260005561184333836123f2565b61184f5761184f613ce4565b600082815260036020908152604080832081518083019092528054600f0b82526001015491810191909152907f0000000000000000000000000000000000000000000000000000000000000000806118a78542613d66565b6118b19190613db3565b6118bb9190613d7e565b9050428260200151116118ff5760405162461bcd60e51b815260206004820152600c60248201526b131bd8dac8195e1c1a5c995960a21b6044820152606401610b0d565b60008260000151600f0b1361194a5760405162461bcd60e51b8152602060048201526011602482015270139bdd1a1a5b99c81a5cc81b1bd8dad959607a1b6044820152606401610b0d565b8160200151811161199d5760405162461bcd60e51b815260206004820152601f60248201527f43616e206f6e6c7920696e637265617365206c6f636b206475726174696f6e006044820152606401610b0d565b6119ab630784ce0042613d66565b8111156119fa5760405162461bcd60e51b815260206004820152601e60248201527f566f74696e67206c6f636b2063616e2062652034207965617273206d617800006044820152606401610b0d565b611a098460008385600361213f565b505060016000555050565b6001600160a01b038216331415611a2d57611a2d613ce4565b3360008181526012602090815260408083206001600160a01b03871680855290835292819020805460ff191686151590811790915590519081529192917f17307eab39ab6107e8899845ad3d59bd9653f200f220920489ca2b5937696c31910160405180910390a35050565b60026000541415611abc5760405162461bcd60e51b8152600401610b0d90613c4c565b6002600055611acb33836123f2565b611ad757611ad7613ce4565b60008281526003602090815260409182902082518084019093528054600f0b8352600101549082015281611b0d57611b0d613ce4565b60008160000151600f0b13611b5d5760405162461bcd60e51b8152602060048201526016602482015275139bc8195e1a5cdd1a5b99c81b1bd8dac8199bdd5b9960521b6044820152606401610b0d565b42816020015111611b805760405162461bcd60e51b8152600401610b0d90613c83565b610bd08383600084600261213f565b600060026000541415611bb45760405162461bcd60e51b8152600401610b0d90613c4c565b6002600055611bc4838333613033565b60016000559392505050565b611bdc84848433612344565b823b15611cf757604051630a85bd0160e11b81526001600160a01b0384169063150b7a0290611c15903390889087908790600401613dc7565b6020604051808303816000875af1925050508015611c50575060408051601f3d908101601f19168201909252611c4d91810190613dfa565b60015b611cf5573d808015611c7e576040519150601f19603f3d011682016040523d82523d6000602084013e611c83565b606091505b508051611ced5760405162461bcd60e51b815260206004820152603260248201527f4552433732313a207472616e7366657220746f206e6f6e20455243373231526560448201527131b2b4bb32b91034b6b83632b6b2b73a32b960711b6064820152608401610b0d565b805181602001fd5b505b50505050565b336000908152600b602052604090205460ff16611d495760405162461bcd60e51b815260206004820152600a60248201526937b7363c903b37ba32b960b11b6044820152606401610b0d565b6000908152600a60205260409020805460ff19169055565b600154604051631846d2f560e31b81526001600160a01b038381166004830152600092169063c23697a890602401602060405180830381865afa158015611dac573d6000803e3d6000fd5b505050506040513d601f19601f820116820180604052508101906109fb9190613d49565b611e0e600060405180604001604052806000600f0b8152602001600081525060405180604001604052806000600f0b81526020016000815250612458565b565b6000818152600d60205260409020546060906001600160a01b0316611e775760405162461bcd60e51b815260206004820152601b60248201527f517565727920666f72206e6f6e6578697374656e7420746f6b656e00000000006044820152606401610b0d565b60008281526003602090815260409182902082518084019093528054600f0b8352600101549082015261118183611eae814261321b565b60208401518451600f0b6132ed565b6000828152600a602052604090205460ff1615611eec5760405162461bcd60e51b8152600401610b0d90613cfa565b80821415611ef957600080fd5b611f0333836123f2565b611f0c57600080fd5b611f1633826123f2565b611f1f57600080fd5b6000828152600360208181526040808420815180830183528154600f90810b825260019283015482860190815288885295855283872084518086019095528054820b855290920154938301849052805194519095929490910b921115611f89578260200151611f8f565b83602001515b604080518082018252600080825260208083018281528b835260038252848320935184546001600160801b0319166001600160801b0390911617845551600190930192909255825180840190935280835290820152909150611ff49087908690612458565b611ffd86612ab1565b61200b85838386600461213f565b505050505050565b6000611181838361321b565b60008181526004602052604081205443141561203d57506000919050565b6109fb824261321b565b60006002600054141561206c5760405162461bcd60e51b8152600401610b0d90613c4c565b600260005561207c848484613033565b6001600055949350505050565b336000908152600b602052604090205460ff166120d55760405162461bcd60e51b815260206004820152600a60248201526937b7363c903b37ba32b960b11b6044820152606401610b0d565b6000818152600a602052604090205460ff16156121245760405162461bcd60e51b815260206004820152600d60248201526c1d1bdad95b9259081d9bdd1959609a1b6044820152606401610b0d565b6000908152600a60205260409020805460ff19166001179055565b600254829061214e8682613d66565b6002556040805180820190915260008082526020820152825160208085015190830152600f0b8152825187908490612187908390613e17565b600f0b905250851561219b57602083018690525b6000888152600360209081526040909120845181546001600160801b0319166001600160801b03909116178155908401516001909101556121dd888285612458565b3387158015906121ff575060048560048111156121fc576121fc613e66565b14155b156122a9576040516323b872dd60e01b81526001600160a01b038281166004830152306024830152604482018a90527f000000000000000000000000000000000000000000000000000000000000000016906323b872dd906064016020604051808303816000875af1158015612279573d6000803e3d6000fd5b505050506040513d601f19601f8201168201806040525081019061229d9190613d49565b6122a9576122a9613ce4565b8360200151816001600160a01b03167fff04ccafc360e16b67d682d17bd9503c4c6b9a131f6be6325762dc9ffc7de6248b8b89426040516122ed9493929190613e7c565b60405180910390a37f5e2aa66efd74cce82b21852e317e5490d9ecc9e6bb953ae24d90851258cc2f5c836123218a82613d66565b6040805192835260208301919091520160405180910390a1505050505050505050565b6000828152600a602052604090205460ff16156123735760405162461bcd60e51b8152600401610b0d90613cfa565b61237d81836123f2565b61238657600080fd5b6123908483613424565b61239a848361348b565b6123a4838361350c565b6000828152600460205260408082204390555183916001600160a01b0380871692908816917fddf252ad1be2c89b69c2b068fc378daa952ba7f163c4a11628f55a4df523b3ef91a450505050565b6000818152600d6020908152604080832054600e8352818420546001600160a01b039182168086526012855283862088841680885295529285205492938085149392909116149060ff1682806124455750815b8061244d5750805b979650505050505050565b604080516080810182526000808252602082018190529181018290526060810191909152604080516080810182526000808252602082018190529181018290526060810191909152600554600090819087156125c4574287602001511180156124c8575060008760000151600f0b135b1561250d5786516124de90630784ce0090613eba565b600f0b6020808701919091528701516124f8904290613d32565b85602001516125079190613ef8565b600f0b85525b428660200151118015612527575060008660000151600f0b135b1561256c57855161253d90630784ce0090613eba565b600f0b602080860191909152860151612557904290613d32565b84602001516125669190613ef8565b600f0b84525b602080880151600090815260098252604090205490870151600f9190910b9350156125c4578660200151866020015114156125a9578291506125c4565b602080870151600090815260099091526040902054600f0b91505b604080516080810182526000808252602082015242918101919091524360608201528115612639575060008181526006602090815260409182902082516080810184528154600f81810b8352600160801b909104900b9281019290925260018101549282019290925260029091015460608201525b6040810151816000428310156126865760408401516126589042613d32565b60608501516126679043613d32565b61267990670de0b6b3a7640000613d7e565b6126839190613db3565b90505b60007f00000000000000000000000000000000000000000000000000000000000000006126b38186613db3565b6126bd9190613d7e565b905060005b60ff811015612855576126f57f000000000000000000000000000000000000000000000000000000000000000083613d66565b91506000428311156127095742925061271d565b50600082815260096020526040902054600f0b5b6127278684613d32565b87602001516127369190613ef8565b87518890612745908390613f8d565b600f0b90525060208701805182919061275f908390613e17565b600f90810b90915288516000910b1215905061277a57600087525b60008760200151600f0b121561279257600060208801525b60408088018490528501519295508592670de0b6b3a7640000906127b69085613d32565b6127c09086613d7e565b6127ca9190613db3565b85606001516127d99190613d66565b60608801526127e9600189613d66565b9750428314156127ff5750436060870152612855565b6000888152600660209081526040918290208951918a01516001600160801b03908116600160801b02921691909117815590880151600182015560608801516002909101555061284e81613fdd565b90506126c2565b505060058590558b156128e057886020015188602001516128769190613f8d565b846020018181516128879190613e17565b600f0b9052508851885161289b9190613f8d565b845185906128aa908390613e17565b600f90810b90915260208601516000910b121590506128cb57600060208501525b60008460000151600f0b12156128e057600084525b6000858152600660209081526040918290208651918701516001600160801b03908116600160801b02921691909117815590850151600182015560608501516002909101558b15612aa357428b6020015111156129985760208901516129469088613e17565b96508a602001518a60200151141561296a5760208801516129679088613f8d565b96505b60208b810151600090815260099091526040902080546001600160801b0319166001600160801b0389161790555b428a6020015111156129f3578a602001518a6020015111156129f35760208801516129c39087613f8d565b60208b810151600090815260099091526040902080546001600160801b0319166001600160801b03831617905595505b60008c815260086020526040812054612a0d906001613d66565b905080600860008f815260200190815260200160002081905550428960400181815250504389606001818152505088600760008f815260200190815260200160002082633b9aca008110612a6357612a63613c36565b825160208401516001600160801b03908116600160801b029116176003919091029190910190815560408201516001820155606090910151600290910155505b505050505050505050505050565b612abb33826123f2565b612b075760405162461bcd60e51b815260206004820181905260248201527f63616c6c6572206973206e6f74206f776e6572206e6f7220617070726f7665646044820152606401610b0d565b6000818152600d60205260408120546001600160a01b031690612b2a9083610a01565b612b34338361348b565b60405182906000906001600160a01b038416907fddf252ad1be2c89b69c2b068fc378daa952ba7f163c4a11628f55a4df523b3ef908390a45050565b60008083905060007f00000000000000000000000000000000000000000000000000000000000000007f00000000000000000000000000000000000000000000000000000000000000008360400151612bc99190613db3565b612bd39190613d7e565b905060005b60ff811015612ca457612c0b7f000000000000000000000000000000000000000000000000000000000000000083613d66565b9150600085831115612c1f57859250612c33565b50600082815260096020526040902054600f0b5b6040840151612c429084613d32565b8460200151612c519190613ef8565b84518590612c60908390613f8d565b600f0b90525082861415612c745750612ca4565b8084602001818151612c869190613e17565b600f0b9052505060408301829052612c9d81613fdd565b9050612bd8565b5060008260000151600f0b1215612cba57600082525b50516001600160801b03169392505050565b600043821115612cde57612cde613ce4565b600083815260086020526040812054815b6080811015612d8257818310612d0457612d82565b60006002612d128486613d66565b612d1d906001613d66565b612d279190613db3565b6000888152600760205260409020909150869082633b9aca008110612d4e57612d4e613c36565b600302016002015411612d6357809350612d71565b612d6e600182613d32565b92505b50612d7b81613fdd565b9050612cef565b50600085815260076020526040812083633b9aca008110612da557612da5613c36565b60408051608081018252600392909202929092018054600f81810b8452600160801b909104900b602083015260018101549282019290925260029091015460608201526005549091506000612dfa8783612fa9565b600081815260066020908152604080832081516080810183528154600f81810b8352600160801b909104900b938101939093526001810154918301919091526002015460608201529192508084841015612ed9576000600681612e5e876001613d66565b8152602080820192909252604090810160002081516080810183528154600f81810b8352600160801b909104900b93810193909352600181015491830191909152600201546060808301829052860151919250612ebb9190613d32565b925083604001518160400151612ed19190613d32565b915050612efd565b6060830151612ee89043613d32565b9150826040015142612efa9190613d32565b90505b60408301518215612f3a578284606001518c612f199190613d32565b612f239084613d7e565b612f2d9190613db3565b612f379082613d66565b90505b6040870151612f499082613d32565b8760200151612f589190613ef8565b87518890612f67908390613f8d565b600f90810b90915288516000910b129050612f9757505093516001600160801b031696506109fb95505050505050565b600099505050505050505050506109fb565b60008082815b608081101561302957818310612fc457613029565b60006002612fd28486613d66565b612fdd906001613d66565b612fe79190613db3565b600081815260066020526040902060020154909150871061300a57809350613018565b613015600182613d32565b92505b5061302281613fdd565b9050612faf565b5090949350505050565b6000807f0000000000000000000000000000000000000000000000000000000000000000806130628642613d66565b61306c9190613db3565b6130769190613d7e565b9050600085116130b15760405162461bcd60e51b8152600401610b0d90602080825260049082015263076203e360e41b604082015260600190565b6130ba836113f1565b156130f95760405162461bcd60e51b815260206004820152600f60248201526e1b195cdcc81d1a185b880c481b999d608a1b6044820152606401610b0d565b4281116131575760405162461bcd60e51b815260206004820152602660248201527f43616e206f6e6c79206c6f636b20756e74696c2074696d6520696e207468652060448201526566757475726560d01b6064820152608401610b0d565b613165630784ce0042613d66565b8111156131b45760405162461bcd60e51b815260206004820152601e60248201527f566f74696e67206c6f636b2063616e2062652034207965617273206d617800006044820152606401610b0d565b600c600081546131c390613fdd565b90915550600c546131d484826135a2565b5060008181526003602090815260409182902082518084019093528054600f0b8352600190810154918301919091526132129183918991869161213f565b95945050505050565b600082815260086020526040812054806132395760009150506109fb565b600084815260076020526040812082633b9aca00811061325b5761325b613c36565b60408051608081018252600392909202929092018054600f81810b8452600160801b909104900b6020830152600181015492820183905260020154606082015291506132a79085613ff8565b81602001516132b69190613ef8565b815182906132c5908390613f8d565b600f90810b90915282516000910b121590506132e057600081525b51600f0b91506109fb9050565b606060405180610120016040528060fd815260200161437e60fd913990508061331586613605565b604051602001613326929190614037565b60405160208183030381529060405290508061334185613605565b6040516020016133529291906140b3565b60405160208183030381529060405290508061336d84613605565b60405160200161337e929190614133565b60405160208183030381529060405290508061339983613605565b6040516020016133aa9291906141b4565b604051602081830303815290604052905060006133f76133c987613605565b6133d284613703565b6040516020016133e392919061420f565b604051602081830303815290604052613703565b90508060405160200161340a9190614324565b604051602081830303815290604052915050949350505050565b6000818152600d60205260409020546001600160a01b0383811691161461344d5761344d613ce4565b6000818152600e60205260409020546001600160a01b031615613487576000818152600e6020526040902080546001600160a01b03191690555b5050565b6000818152600d60205260409020546001600160a01b038381169116146134b4576134b4613ce4565b6000818152600d6020526040902080546001600160a01b03191690556134da8282613857565b6001600160a01b0382166000908152600f60205260408120805460019290613503908490613d32565b90915550505050565b6000818152600d60205260409020546001600160a01b03161561353157613531613ce4565b6000818152600d6020908152604080832080546001600160a01b0319166001600160a01b038716908117909155808452600f80845282852080546010865284872081885286528487208890558787526011865293862093909355908452909152805460019290613503908490613d66565b60006001600160a01b0383166135ba576135ba613ce4565b6135c4838361350c565b60405182906001600160a01b038516906000907fddf252ad1be2c89b69c2b068fc378daa952ba7f163c4a11628f55a4df523b3ef908290a450600192915050565b6060816136295750506040805180820190915260018152600360fc1b602082015290565b8160005b8115613653578061363d81613fdd565b915061364c9050600a83613db3565b915061362d565b60008167ffffffffffffffff81111561366e5761366e613ad9565b6040519080825280601f01601f191660200182016040528015613698576020820181803683370190505b5090505b8415611467576136ad600183613d32565b91506136ba600a86614369565b6136c5906030613d66565b60f81b8183815181106136da576136da613c36565b60200101906001600160f81b031916908160001a9053506136fc600a86613db3565b945061369c565b606081516000141561372357505060408051602081019091526000815290565b600060405180606001604052806040815260200161447b60409139905060006003845160026137529190613d66565b61375c9190613db3565b613767906004613d7e565b67ffffffffffffffff81111561377f5761377f613ad9565b6040519080825280601f01601f1916602001820160405280156137a9576020820181803683370190505b509050600182016020820185865187015b80821015613815576003820191508151603f8160121c168501518453600184019350603f81600c1c168501518453600184019350603f8160061c168501518453600184019350603f81168501518453506001830192506137ba565b505060038651066001811461383157600281146138445761384c565b603d6001830353603d600283035361384c565b603d60018303535b509195945050505050565b6001600160a01b0382166000908152600f602052604081205461387c90600190613d32565b600083815260116020526040902054909150808214156138cc576001600160a01b038416600090815260106020908152604080832085845282528083208390558583526011909152812055611cf7565b6001600160a01b039390931660009081526010602090815260408083209383529281528282208054868452848420819055835260119091528282209490945592839055908252812055565b6001600160e01b03198116811461392d57600080fd5b50565b60006020828403121561394257600080fd5b813561118181613917565b6000806040838503121561396057600080fd5b50508035926020909101359150565b60005b8381101561398a578181015183820152602001613972565b83811115611cf75750506000910152565b600081518084526139b381602086016020860161396f565b601f01601f19169290920160200192915050565b602081526000611181602083018461399b565b6000602082840312156139ec57600080fd5b5035919050565b6001600160a01b038116811461392d57600080fd5b60008060408385031215613a1b57600080fd5b8235613a26816139f3565b946020939093013593505050565b600060208284031215613a4657600080fd5b8135611181816139f3565b600080600060608486031215613a6657600080fd5b8335613a71816139f3565b92506020840135613a81816139f3565b929592945050506040919091013590565b801515811461392d57600080fd5b60008060408385031215613ab357600080fd5b8235613abe816139f3565b91506020830135613ace81613a92565b809150509250929050565b634e487b7160e01b600052604160045260246000fd5b60008060008060808587031215613b0557600080fd5b8435613b10816139f3565b93506020850135613b20816139f3565b925060408501359150606085013567ffffffffffffffff80821115613b4457600080fd5b818701915087601f830112613b5857600080fd5b813581811115613b6a57613b6a613ad9565b604051601f8201601f19908116603f01168101908382118183101715613b9257613b92613ad9565b816040528281528a6020848701011115613bab57600080fd5b82602086016020830137600060208483010152809550505050505092959194509250565b60008060408385031215613be257600080fd5b8235613bed816139f3565b91506020830135613ace816139f3565b600080600060608486031215613c1257600080fd5b83359250602084013591506040840135613c2b816139f3565b809150509250925092565b634e487b7160e01b600052603260045260246000fd5b6020808252601f908201527f5265656e7472616e637947756172643a207265656e7472616e742063616c6c00604082015260600190565b60208082526024908201527f43616e6e6f742061646420746f2065787069726564206c6f636b2e20576974686040820152636472617760e01b606082015260800190565b600060208284031215613cd957600080fd5b8151611181816139f3565b634e487b7160e01b600052600160045260246000fd5b602080825260089082015267185d1d1858da195960c21b604082015260600190565b634e487b7160e01b600052601160045260246000fd5b600082821015613d4457613d44613d1c565b500390565b600060208284031215613d5b57600080fd5b815161118181613a92565b60008219821115613d7957613d79613d1c565b500190565b6000816000190483118215151615613d9857613d98613d1c565b500290565b634e487b7160e01b600052601260045260246000fd5b600082613dc257613dc2613d9d565b500490565b6001600160a01b03858116825284166020820152604081018390526080606082018190526000906118079083018461399b565b600060208284031215613e0c57600080fd5b815161118181613917565b600081600f0b83600f0b600082128260016001607f1b0303821381151615613e4157613e41613d1c565b8260016001607f1b0319038212811615613e5d57613e5d613d1c565b50019392505050565b634e487b7160e01b600052602160045260246000fd5b848152602081018490526080810160058410613ea857634e487b7160e01b600052602160045260246000fd5b60408201939093526060015292915050565b600081600f0b83600f0b80613ed157613ed1613d9d565b60016001607f1b0319821460001982141615613eef57613eef613d1c565b90059392505050565b600081600f0b83600f0b60016001607f1b03600082136000841383830485118282161615613f2857613f28613d1c565b60016001607f1b03196000851282811687830587121615613f4b57613f4b613d1c565b60008712925085820587128484161615613f6757613f67613d1c565b85850587128184161615613f7d57613f7d613d1c565b5050509290910295945050505050565b600081600f0b83600f0b600081128160016001607f1b031901831281151615613fb857613fb8613d1c565b8160016001607f1b03018313811615613fd357613fd3613d1c565b5090039392505050565b6000600019821415613ff157613ff1613d1c565b5060010190565b60008083128015600160ff1b85018412161561401657614016613d1c565b6001600160ff1b038401831381161561403157614031613d1c565b50500390565b6000835161404981846020880161396f565b6503a37b5b2b7160d51b908301908152835161406c81600684016020880161396f565b7f3c2f746578743e3c7465787420783d2231302220793d2234302220636c61737360069290910191820152671e913130b9b2911f60c11b6026820152602e01949350505050565b600083516140c581846020880161396f565b6903130b630b731b2a7b3160b51b90830190815283516140ec81600a84016020880161396f565b7f3c2f746578743e3c7465787420783d2231302220793d2236302220636c617373600a9290910191820152671e913130b9b2911f60c11b602a820152603201949350505050565b6000835161414581846020880161396f565b6a03637b1b5b2b22fb2b732160ad1b908301908152835161416d81600b84016020880161396f565b7f3c2f746578743e3c7465787420783d2231302220793d2238302220636c617373600b9290910191820152671e913130b9b2911f60c11b602b820152603301949350505050565b600083516141c681846020880161396f565b6503b30b63ab2960d51b90830190815283516141e981600684016020880161396f565b6c1e17ba32bc3a1f1e17b9bb339f60991b60069290910191820152601301949350505050565b6f7b226e616d65223a20226c6f636b202360801b8152825160009061423b81601085016020880161396f565b7f222c20226465736372697074696f6e223a2022536f6c69646c79206c6f636b736010918401918201527f2c2063616e206265207573656420746f20626f6f73742067617567652079696560308201527f6c64732c20766f7465206f6e20746f6b656e20656d697373696f6e2c20616e6460508201527f207265636569766520627269626573222c2022696d616765223a2022646174616070820152750e9a5b5859d94bdcdd99cade1b5b0ed8985cd94d8d0b60521b609082015283516143098160a684016020880161396f565b61227d60f01b60a6929091019182015260a801949350505050565b7f646174613a6170706c69636174696f6e2f6a736f6e3b6261736536342c00000081526000825161435c81601d85016020870161396f565b91909101601d0192915050565b60008261437857614378613d9d565b50069056fe3c73766720786d6c6e733d22687474703a2f2f7777772e77332e6f72672f323030302f73766722207072657365727665417370656374526174696f3d22784d696e594d696e206d656574222076696577426f783d223020302033353020333530223e3c7374796c653e2e62617365207b2066696c6c3a2077686974653b20666f6e742d66616d696c793a2073657269663b20666f6e742d73697a653a20313470783b207d3c2f7374796c653e3c726563742077696474683d223130302522206865696768743d2231303025222066696c6c3d22626c61636b22202f3e3c7465787420783d2231302220793d2232302220636c6173733d2262617365223e4142434445464748494a4b4c4d4e4f505152535455565758595a6162636465666768696a6b6c6d6e6f707172737475767778797a303132333435363738392b2fa2646970667358221220816d9a59dca7e2c640234c686507dff040d217cc4b0510d0c4819897b7e61a4064736f6c634300080a0033ddf252ad1be2c89b69c2b068fc378daa952ba7f163c4a11628f55a4df523b3ef",
  "linkReferences": {},
  "deployedLinkReferences": {}
}