{
  "_format": "hh-sol-artifact-1",
  "contractName": "Locker",
  "sourceName": "contracts/dao/Locker.sol",
  "abi": [
    {
      "inputs": [
        {
          "internalType": "address",
          "name": "_operatorMsg",
          "type": "address"
        },
        {
          "internalType": "address",
          "name": "tokenAddr",
          "type": "address"
        },
        {
          "internalType": "uint256",
          "name": "_duration",
          "type": "uint256"
        }
      ],
      "stateMutability": "nonpayable",
      "type": "constructor"
    },
    {
      "anonymous": false,
      "inputs": [
        {
          "indexed": true,
          "internalType": "address",
          "name": "owner",
          "type": "address"
        },
        {
          "indexed": true,
          "internalType": "address",
          "name": "approved",
          "type": "address"
        },
        {
          "indexed": true,
          "internalType": "uint256",
          "name": "tokenId",
          "type": "uint256"
        }
      ],
      "name": "Approval",
      "type": "event"
    },
    {
      "anonymous": false,
      "inputs": [
        {
          "indexed": true,
          "internalType": "address",
          "name": "owner",
          "type": "address"
        },
        {
          "indexed": true,
          "internalType": "address",
          "name": "operator",
          "type": "address"
        },
        {
          "indexed": false,
          "internalType": "bool",
          "name": "approved",
          "type": "bool"
        }
      ],
      "name": "ApprovalForAll",
      "type": "event"
    },
    {
      "anonymous": false,
      "inputs": [
        {
          "indexed": false,
          "internalType": "address",
          "name": "_address",
          "type": "address"
        }
      ],
      "name": "BoostAdded",
      "type": "event"
    },
    {
      "anonymous": false,
      "inputs": [
        {
          "indexed": false,
          "internalType": "address",
          "name": "_address",
          "type": "address"
        }
      ],
      "name": "BoostRemoved",
      "type": "event"
    },
    {
      "anonymous": false,
      "inputs": [
        {
          "indexed": true,
          "internalType": "address",
          "name": "provider",
          "type": "address"
        },
        {
          "indexed": false,
          "internalType": "uint256",
          "name": "tokenId",
          "type": "uint256"
        },
        {
          "indexed": false,
          "internalType": "uint256",
          "name": "value",
          "type": "uint256"
        },
        {
          "indexed": true,
          "internalType": "uint256",
          "name": "locktime",
          "type": "uint256"
        },
        {
          "indexed": false,
          "internalType": "enum Locker.DepositType",
          "name": "depositType",
          "type": "uint8"
        },
        {
          "indexed": false,
          "internalType": "uint256",
          "name": "ts",
          "type": "uint256"
        }
      ],
      "name": "Deposit",
      "type": "event"
    },
    {
      "anonymous": false,
      "inputs": [
        {
          "indexed": true,
          "internalType": "address",
          "name": "oldOperator",
          "type": "address"
        },
        {
          "indexed": true,
          "internalType": "address",
          "name": "newOperator",
          "type": "address"
        }
      ],
      "name": "SetOperatorContract",
      "type": "event"
    },
    {
      "anonymous": false,
      "inputs": [
        {
          "indexed": false,
          "internalType": "uint256",
          "name": "prevSupply",
          "type": "uint256"
        },
        {
          "indexed": false,
          "internalType": "uint256",
          "name": "supply",
          "type": "uint256"
        }
      ],
      "name": "Supply",
      "type": "event"
    },
    {
      "anonymous": false,
      "inputs": [
        {
          "indexed": true,
          "internalType": "address",
          "name": "from",
          "type": "address"
        },
        {
          "indexed": true,
          "internalType": "address",
          "name": "to",
          "type": "address"
        },
        {
          "indexed": true,
          "internalType": "uint256",
          "name": "tokenId",
          "type": "uint256"
        }
      ],
      "name": "Transfer",
      "type": "event"
    },
    {
      "anonymous": false,
      "inputs": [
        {
          "indexed": true,
          "internalType": "address",
          "name": "provider",
          "type": "address"
        },
        {
          "indexed": false,
          "internalType": "uint256",
          "name": "tokenId",
          "type": "uint256"
        },
        {
          "indexed": false,
          "internalType": "uint256",
          "name": "value",
          "type": "uint256"
        },
        {
          "indexed": false,
          "internalType": "uint256",
          "name": "ts",
          "type": "uint256"
        }
      ],
      "name": "Withdraw",
      "type": "event"
    },
    {
      "inputs": [],
      "name": "I_MAXTIME",
      "outputs": [
        {
          "internalType": "int128",
          "name": "",
          "type": "int128"
        }
      ],
      "stateMutability": "view",
      "type": "function"
    },
    {
      "inputs": [],
      "name": "MAXTIME",
      "outputs": [
        {
          "internalType": "uint256",
          "name": "",
          "type": "uint256"
        }
      ],
      "stateMutability": "view",
      "type": "function"
    },
    {
      "inputs": [],
      "name": "MULTIPLIER",
      "outputs": [
        {
          "internalType": "uint256",
          "name": "",
          "type": "uint256"
        }
      ],
      "stateMutability": "view",
      "type": "function"
    },
    {
      "inputs": [
        {
          "internalType": "uint256",
          "name": "_tokenId",
          "type": "uint256"
        }
      ],
      "name": "abstain",
      "outputs": [],
      "stateMutability": "nonpayable",
      "type": "function"
    },
    {
      "inputs": [
        {
          "internalType": "address",
          "name": "_address",
          "type": "address"
        }
      ],
      "name": "addBoosts",
      "outputs": [],
      "stateMutability": "nonpayable",
      "type": "function"
    },
    {
      "inputs": [
        {
          "internalType": "address",
          "name": "_approved",
          "type": "address"
        },
        {
          "internalType": "uint256",
          "name": "_tokenId",
          "type": "uint256"
        }
      ],
      "name": "approve",
      "outputs": [],
      "stateMutability": "nonpayable",
      "type": "function"
    },
    {
      "inputs": [
        {
          "internalType": "address",
          "name": "_owner",
          "type": "address"
        }
      ],
      "name": "balanceOf",
      "outputs": [
        {
          "internalType": "uint256",
          "name": "",
          "type": "uint256"
        }
      ],
      "stateMutability": "view",
      "type": "function"
    },
    {
      "inputs": [
        {
          "internalType": "uint256",
          "name": "_tokenId",
          "type": "uint256"
        },
        {
          "internalType": "uint256",
          "name": "_block",
          "type": "uint256"
        }
      ],
      "name": "balanceOfAtNFT",
      "outputs": [
        {
          "internalType": "uint256",
          "name": "",
          "type": "uint256"
        }
      ],
      "stateMutability": "view",
      "type": "function"
    },
    {
      "inputs": [
        {
          "internalType": "uint256",
          "name": "_tokenId",
          "type": "uint256"
        }
      ],
      "name": "balanceOfNFT",
      "outputs": [
        {
          "internalType": "uint256",
          "name": "",
          "type": "uint256"
        }
      ],
      "stateMutability": "view",
      "type": "function"
    },
    {
      "inputs": [
        {
          "internalType": "uint256",
          "name": "_tokenId",
          "type": "uint256"
        },
        {
          "internalType": "uint256",
          "name": "_t",
          "type": "uint256"
        }
      ],
      "name": "balanceOfNFTAt",
      "outputs": [
        {
          "internalType": "uint256",
          "name": "",
          "type": "uint256"
        }
      ],
      "stateMutability": "view",
      "type": "function"
    },
    {
      "inputs": [
        {
          "internalType": "address",
          "name": "",
          "type": "address"
        }
      ],
      "name": "boosts",
      "outputs": [
        {
          "internalType": "bool",
          "name": "",
          "type": "bool"
        }
      ],
      "stateMutability": "view",
      "type": "function"
    },
    {
      "inputs": [
        {
          "internalType": "address",
          "name": "_target",
          "type": "address"
        }
      ],
      "name": "check",
      "outputs": [
        {
          "internalType": "bool",
          "name": "",
          "type": "bool"
        }
      ],
      "stateMutability": "view",
      "type": "function"
    },
    {
      "inputs": [],
      "name": "checkpoint",
      "outputs": [],
      "stateMutability": "nonpayable",
      "type": "function"
    },
    {
      "inputs": [
        {
          "internalType": "uint256",
          "name": "_value",
          "type": "uint256"
        },
        {
          "internalType": "uint256",
          "name": "_lockDuration",
          "type": "uint256"
        }
      ],
      "name": "createLock",
      "outputs": [
        {
          "internalType": "uint256",
          "name": "",
          "type": "uint256"
        }
      ],
      "stateMutability": "nonpayable",
      "type": "function"
    },
    {
      "inputs": [
        {
          "internalType": "uint256",
          "name": "_value",
          "type": "uint256"
        },
        {
          "internalType": "uint256",
          "name": "_lockDuration",
          "type": "uint256"
        },
        {
          "internalType": "address",
          "name": "_to",
          "type": "address"
        }
      ],
      "name": "createLockFor",
      "outputs": [
        {
          "internalType": "uint256",
          "name": "",
          "type": "uint256"
        }
      ],
      "stateMutability": "nonpayable",
      "type": "function"
    },
    {
      "inputs": [],
      "name": "decimals",
      "outputs": [
        {
          "internalType": "uint8",
          "name": "",
          "type": "uint8"
        }
      ],
      "stateMutability": "view",
      "type": "function"
    },
    {
      "inputs": [
        {
          "internalType": "uint256",
          "name": "_tokenId",
          "type": "uint256"
        },
        {
          "internalType": "uint256",
          "name": "_value",
          "type": "uint256"
        }
      ],
      "name": "depositFor",
      "outputs": [],
      "stateMutability": "nonpayable",
      "type": "function"
    },
    {
      "inputs": [],
      "name": "duration",
      "outputs": [
        {
          "internalType": "uint256",
          "name": "",
          "type": "uint256"
        }
      ],
      "stateMutability": "view",
      "type": "function"
    },
    {
      "inputs": [
        {
          "internalType": "uint256",
          "name": "_tokenId",
          "type": "uint256"
        }
      ],
      "name": "emergencyWithdraw",
      "outputs": [],
      "stateMutability": "nonpayable",
      "type": "function"
    },
    {
      "inputs": [],
      "name": "epoch",
      "outputs": [
        {
          "internalType": "uint256",
          "name": "",
          "type": "uint256"
        }
      ],
      "stateMutability": "view",
      "type": "function"
    },
    {
      "inputs": [
        {
          "internalType": "uint256",
          "name": "_tokenId",
          "type": "uint256"
        }
      ],
      "name": "getApproved",
      "outputs": [
        {
          "internalType": "address",
          "name": "",
          "type": "address"
        }
      ],
      "stateMutability": "view",
      "type": "function"
    },
    {
      "inputs": [
        {
          "internalType": "uint256",
          "name": "_tokenId",
          "type": "uint256"
        }
      ],
      "name": "getLastUserSlope",
      "outputs": [
        {
          "internalType": "int128",
          "name": "",
          "type": "int128"
        }
      ],
      "stateMutability": "view",
      "type": "function"
    },
    {
      "inputs": [
        {
          "internalType": "uint256",
          "name": "_tokenId",
          "type": "uint256"
        },
        {
          "internalType": "uint256",
          "name": "_value",
          "type": "uint256"
        }
      ],
      "name": "increaseAmount",
      "outputs": [],
      "stateMutability": "nonpayable",
      "type": "function"
    },
    {
      "inputs": [
        {
          "internalType": "uint256",
          "name": "_tokenId",
          "type": "uint256"
        },
        {
          "internalType": "uint256",
          "name": "_lockDuration",
          "type": "uint256"
        }
      ],
      "name": "increaseUnlockTime",
      "outputs": [],
      "stateMutability": "nonpayable",
      "type": "function"
    },
    {
      "inputs": [
        {
          "internalType": "address",
          "name": "_owner",
          "type": "address"
        },
        {
          "internalType": "address",
          "name": "_operator",
          "type": "address"
        }
      ],
      "name": "isApprovedForAll",
      "outputs": [
        {
          "internalType": "bool",
          "name": "",
          "type": "bool"
        }
      ],
      "stateMutability": "view",
      "type": "function"
    },
    {
      "inputs": [
        {
          "internalType": "address",
          "name": "_spender",
          "type": "address"
        },
        {
          "internalType": "uint256",
          "name": "_tokenId",
          "type": "uint256"
        }
      ],
      "name": "isApprovedOrOwner",
      "outputs": [
        {
          "internalType": "bool",
          "name": "",
          "type": "bool"
        }
      ],
      "stateMutability": "view",
      "type": "function"
    },
    {
      "inputs": [
        {
          "internalType": "uint256",
          "name": "",
          "type": "uint256"
        }
      ],
      "name": "locked",
      "outputs": [
        {
          "internalType": "int128",
          "name": "amount",
          "type": "int128"
        },
        {
          "internalType": "uint256",
          "name": "end",
          "type": "uint256"
        }
      ],
      "stateMutability": "view",
      "type": "function"
    },
    {
      "inputs": [
        {
          "internalType": "uint256",
          "name": "_tokenId",
          "type": "uint256"
        }
      ],
      "name": "lockedEnd",
      "outputs": [
        {
          "internalType": "uint256",
          "name": "",
          "type": "uint256"
        }
      ],
      "stateMutability": "view",
      "type": "function"
    },
    {
      "inputs": [
        {
          "internalType": "uint256",
          "name": "_from",
          "type": "uint256"
        },
        {
          "internalType": "uint256",
          "name": "_to",
          "type": "uint256"
        }
      ],
      "name": "merge",
      "outputs": [],
      "stateMutability": "nonpayable",
      "type": "function"
    },
    {
      "inputs": [],
      "name": "name",
      "outputs": [
        {
          "internalType": "string",
          "name": "",
          "type": "string"
        }
      ],
      "stateMutability": "view",
      "type": "function"
    },
    {
      "inputs": [],
      "name": "operatable",
      "outputs": [
        {
          "internalType": "contract Operatable",
          "name": "",
          "type": "address"
        }
      ],
      "stateMutability": "view",
      "type": "function"
    },
    {
      "inputs": [],
      "name": "operator",
      "outputs": [
        {
          "internalType": "address",
          "name": "",
          "type": "address"
        }
      ],
      "stateMutability": "view",
      "type": "function"
    },
    {
      "inputs": [],
      "name": "owner",
      "outputs": [
        {
          "internalType": "address",
          "name": "",
          "type": "address"
        }
      ],
      "stateMutability": "view",
      "type": "function"
    },
    {
      "inputs": [
        {
          "internalType": "uint256",
          "name": "_tokenId",
          "type": "uint256"
        }
      ],
      "name": "ownerOf",
      "outputs": [
        {
          "internalType": "address",
          "name": "",
          "type": "address"
        }
      ],
      "stateMutability": "view",
      "type": "function"
    },
    {
      "inputs": [
        {
          "internalType": "uint256",
          "name": "",
          "type": "uint256"
        }
      ],
      "name": "ownershipChange",
      "outputs": [
        {
          "internalType": "uint256",
          "name": "",
          "type": "uint256"
        }
      ],
      "stateMutability": "view",
      "type": "function"
    },
    {
      "inputs": [
        {
          "internalType": "uint256",
          "name": "",
          "type": "uint256"
        }
      ],
      "name": "pointHistory",
      "outputs": [
        {
          "internalType": "int128",
          "name": "bias",
          "type": "int128"
        },
        {
          "internalType": "int128",
          "name": "slope",
          "type": "int128"
        },
        {
          "internalType": "uint256",
          "name": "ts",
          "type": "uint256"
        },
        {
          "internalType": "uint256",
          "name": "blk",
          "type": "uint256"
        }
      ],
      "stateMutability": "view",
      "type": "function"
    },
    {
      "inputs": [
        {
          "internalType": "address",
          "name": "_address",
          "type": "address"
        }
      ],
      "name": "removeBoosts",
      "outputs": [],
      "stateMutability": "nonpayable",
      "type": "function"
    },
    {
      "inputs": [
        {
          "internalType": "address",
          "name": "_from",
          "type": "address"
        },
        {
          "internalType": "address",
          "name": "_to",
          "type": "address"
        },
        {
          "internalType": "uint256",
          "name": "_tokenId",
          "type": "uint256"
        }
      ],
      "name": "safeTransferFrom",
      "outputs": [],
      "stateMutability": "nonpayable",
      "type": "function"
    },
    {
      "inputs": [
        {
          "internalType": "address",
          "name": "_from",
          "type": "address"
        },
        {
          "internalType": "address",
          "name": "_to",
          "type": "address"
        },
        {
          "internalType": "uint256",
          "name": "_tokenId",
          "type": "uint256"
        },
        {
          "internalType": "bytes",
          "name": "_data",
          "type": "bytes"
        }
      ],
      "name": "safeTransferFrom",
      "outputs": [],
      "stateMutability": "nonpayable",
      "type": "function"
    },
    {
      "inputs": [
        {
          "internalType": "address",
          "name": "_operator",
          "type": "address"
        },
        {
          "internalType": "bool",
          "name": "_approved",
          "type": "bool"
        }
      ],
      "name": "setApprovalForAll",
      "outputs": [],
      "stateMutability": "nonpayable",
      "type": "function"
    },
    {
      "inputs": [
        {
          "internalType": "address",
          "name": "_oper",
          "type": "address"
        }
      ],
      "name": "setOperContract",
      "outputs": [],
      "stateMutability": "nonpayable",
      "type": "function"
    },
    {
      "inputs": [
        {
          "internalType": "uint256",
          "name": "",
          "type": "uint256"
        }
      ],
      "name": "slopeChanges",
      "outputs": [
        {
          "internalType": "int128",
          "name": "",
          "type": "int128"
        }
      ],
      "stateMutability": "view",
      "type": "function"
    },
    {
      "inputs": [],
      "name": "supply",
      "outputs": [
        {
          "internalType": "uint256",
          "name": "",
          "type": "uint256"
        }
      ],
      "stateMutability": "view",
      "type": "function"
    },
    {
      "inputs": [
        {
          "internalType": "bytes4",
          "name": "_interfaceID",
          "type": "bytes4"
        }
      ],
      "name": "supportsInterface",
      "outputs": [
        {
          "internalType": "bool",
          "name": "",
          "type": "bool"
        }
      ],
      "stateMutability": "view",
      "type": "function"
    },
    {
      "inputs": [],
      "name": "symbol",
      "outputs": [
        {
          "internalType": "string",
          "name": "",
          "type": "string"
        }
      ],
      "stateMutability": "view",
      "type": "function"
    },
    {
      "inputs": [],
      "name": "token",
      "outputs": [
        {
          "internalType": "address",
          "name": "",
          "type": "address"
        }
      ],
      "stateMutability": "view",
      "type": "function"
    },
    {
      "inputs": [],
      "name": "tokenId",
      "outputs": [
        {
          "internalType": "uint256",
          "name": "",
          "type": "uint256"
        }
      ],
      "stateMutability": "view",
      "type": "function"
    },
    {
      "inputs": [
        {
          "internalType": "address",
          "name": "_owner",
          "type": "address"
        },
        {
          "internalType": "uint256",
          "name": "_tokenIndex",
          "type": "uint256"
        }
      ],
      "name": "tokenOfOwnerByIndex",
      "outputs": [
        {
          "internalType": "uint256",
          "name": "",
          "type": "uint256"
        }
      ],
      "stateMutability": "view",
      "type": "function"
    },
    {
      "inputs": [
        {
          "internalType": "uint256",
          "name": "_tokenId",
          "type": "uint256"
        }
      ],
      "name": "tokenURI",
      "outputs": [
        {
          "internalType": "string",
          "name": "",
          "type": "string"
        }
      ],
      "stateMutability": "view",
      "type": "function"
    },
    {
      "inputs": [],
      "name": "totalSupply",
      "outputs": [
        {
          "internalType": "uint256",
          "name": "",
          "type": "uint256"
        }
      ],
      "stateMutability": "view",
      "type": "function"
    },
    {
      "inputs": [
        {
          "internalType": "uint256",
          "name": "_block",
          "type": "uint256"
        }
      ],
      "name": "totalSupplyAt",
      "outputs": [
        {
          "internalType": "uint256",
          "name": "",
          "type": "uint256"
        }
      ],
      "stateMutability": "view",
      "type": "function"
    },
    {
      "inputs": [
        {
          "internalType": "uint256",
          "name": "t",
          "type": "uint256"
        }
      ],
      "name": "totalSupplyAtT",
      "outputs": [
        {
          "internalType": "uint256",
          "name": "",
          "type": "uint256"
        }
      ],
      "stateMutability": "view",
      "type": "function"
    },
    {
      "inputs": [
        {
          "internalType": "address",
          "name": "_from",
          "type": "address"
        },
        {
          "internalType": "address",
          "name": "_to",
          "type": "address"
        },
        {
          "internalType": "uint256",
          "name": "_tokenId",
          "type": "uint256"
        }
      ],
      "name": "transferFrom",
      "outputs": [],
      "stateMutability": "nonpayable",
      "type": "function"
    },
    {
      "inputs": [
        {
          "internalType": "uint256",
          "name": "",
          "type": "uint256"
        }
      ],
      "name": "userPointEpoch",
      "outputs": [
        {
          "internalType": "uint256",
          "name": "",
          "type": "uint256"
        }
      ],
      "stateMutability": "view",
      "type": "function"
    },
    {
      "inputs": [
        {
          "internalType": "uint256",
          "name": "",
          "type": "uint256"
        },
        {
          "internalType": "uint256",
          "name": "",
          "type": "uint256"
        }
      ],
      "name": "userPointHistory",
      "outputs": [
        {
          "internalType": "int128",
          "name": "bias",
          "type": "int128"
        },
        {
          "internalType": "int128",
          "name": "slope",
          "type": "int128"
        },
        {
          "internalType": "uint256",
          "name": "ts",
          "type": "uint256"
        },
        {
          "internalType": "uint256",
          "name": "blk",
          "type": "uint256"
        }
      ],
      "stateMutability": "view",
      "type": "function"
    },
    {
      "inputs": [
        {
          "internalType": "uint256",
          "name": "_tokenId",
          "type": "uint256"
        },
        {
          "internalType": "uint256",
          "name": "_idx",
          "type": "uint256"
        }
      ],
      "name": "userPointHistoryTs",
      "outputs": [
        {
          "internalType": "uint256",
          "name": "",
          "type": "uint256"
        }
      ],
      "stateMutability": "view",
      "type": "function"
    },
    {
      "inputs": [],
      "name": "version",
      "outputs": [
        {
          "internalType": "string",
          "name": "",
          "type": "string"
        }
      ],
      "stateMutability": "view",
      "type": "function"
    },
    {
      "inputs": [
        {
          "internalType": "uint256",
          "name": "",
          "type": "uint256"
        }
      ],
      "name": "voted",
      "outputs": [
        {
          "internalType": "bool",
          "name": "",
          "type": "bool"
        }
      ],
      "stateMutability": "view",
      "type": "function"
    },
    {
      "inputs": [
        {
          "internalType": "uint256",
          "name": "_tokenId",
          "type": "uint256"
        }
      ],
      "name": "voting",
      "outputs": [],
      "stateMutability": "nonpayable",
      "type": "function"
    },
    {
      "inputs": [
        {
          "internalType": "uint256",
          "name": "_tokenId",
          "type": "uint256"
        }
      ],
      "name": "withdraw",
      "outputs": [],
      "stateMutability": "nonpayable",
      "type": "function"
    }
  ],
  "bytecode": "0x60c06040523480156200001157600080fd5b50604051620047bf380380620047bf8339810160408190526200003491620001d6565b6001600081815581546001600160a01b0319166001600160a01b038616908117909255604051859291907f3ccbb406b985dd76fe05e172b432487a2ff9fe4257642d3acc350f167cb1d577908290a3506001600160a01b03821660a052437f54cdd369e4e8a8515e52ca72ec816c2101831ad1f18bf44102ed171459c9b4fa55427f54cdd369e4e8a8515e52ca72ec816c2101831ad1f18bf44102ed171459c9b4f955608081905260136020527f317681100331673b27c2499894e78912f138ae85f2dd790e454ff96a89cf2d77805460ff1990811660019081179092557f5829b1f18259a9cdcd4268c3b072804d2f8e3dedbb1b883db1fa2055bb26d84f8054821683179055635b5e139f60e01b60009081527f65cb089fa41783e5af12e88573d882f263c09532a373334f0b809825d5a904ab80549092169092179055600c54604051909130916000805160206200479f833981519152908290a4600c5460405160009030906000805160206200479f833981519152908390a450505062000217565b80516001600160a01b0381168114620001d157600080fd5b919050565b600080600060608486031215620001ec57600080fd5b620001f784620001b9565b92506200020760208501620001b9565b9150604084015190509250925092565b60805160a05161451c620002836000396000818161097601528181610ed40152818161130901526122300152600081816104d60152818161187d015281816126b6015281816126fc01528181612ba601528181612bc701528181612c120152613064015261451c6000f3fe608060405234801561001057600080fd5b50600436106103a45760003560e01c80637116c60c116101e9578063c1f0fb9f1161010f578063e7e242d4116100ad578063f52a36f71161007c578063f52a36f71461094e578063fc0c546a14610971578063fd4a77f114610998578063fdabc986146109ab57600080fd5b8063e7e242d4146108e1578063e985e9c5146108f4578063ec32e6df14610930578063ee00ef3a1461094357600080fd5b8063c87b56dd116100e9578063c87b56dd14610888578063d1c2babb1461089b578063e0514aba146108ae578063e58f5947146108c157600080fd5b8063c1f0fb9f1461085a578063c23697a81461086d578063c2c4c5c11461088057600080fd5b806395d89b4111610187578063b2383e5511610156578063b2383e55146107d9578063b45a3c0e146107ec578063b52c05fe14610834578063b88d4fde1461084757600080fd5b806395d89b4114610424578063981b24d0146107a05780639d507b8b146107b3578063a22cb465146107c657600080fd5b80638da5cb5b116101c35780638da5cb5b146107595780638fbb38ff14610761578063900cf0cf1461078457806390e056ab1461078d57600080fd5b80637116c60c146106f55780638ad4c447146107085780638c2c9baf1461074657600080fd5b80632e1a7d4d116102ce57806348ee26a31161026c578063570ca7351161023b578063570ca7351461068e578063626944df146106965780636352211e146106b957806370a08231146106e257600080fd5b806348ee26a3146106315780635312ea8e1461064457806354fd4d50146106575780635633e0a61461067b57600080fd5b8063418517c6116102a8578063418517c6146105bd57806342842e0e146105d0578063430c2081146105e357806344acb42a146105f657600080fd5b80632e1a7d4d1461055a5780632f745c591461056d578063313ce567146105a357600080fd5b80630ec84dda1161034657806318160ddd1161031557806318160ddd146105015780631fdbfd511461050957806323857d511461052757806323b872dd1461054757600080fd5b80630ec84dda146104ab5780630f589d63146104be5780630fb5a6b4146104d157806317d70f7c146104f857600080fd5b806305ae4f8c1161038257806305ae4f8c1461041157806306fdde0314610424578063081812fc14610455578063095ea7b31461049657600080fd5b806301ffc9a7146103a9578063047fc9aa146103eb578063059f8b1614610402575b600080fd5b6103d66103b736600461395c565b6001600160e01b03191660009081526013602052604090205460ff1690565b60405190151581526020015b60405180910390f35b6103f460025481565b6040519081526020016103e2565b6103f4670de0b6b3a764000081565b6103f461041f366004613979565b6109ce565b610448604051806040016040528060058152602001641d9953919560da1b81525081565b6040516103e291906139f3565b61047e610463366004613a06565b6000908152600e60205260409020546001600160a01b031690565b6040516001600160a01b0390911681526020016103e2565b6104a96104a4366004613a34565b610a01565b005b6104a96104b9366004613979565b610aea565b6104a96104cc366004613a60565b610bda565b6103f47f000000000000000000000000000000000000000000000000000000000000000081565b6103f4600c5481565b6103f4610d38565b610514630784ce0081565b604051600f9190910b81526020016103e2565b6103f4610535366004613a06565b60046020526000908152604090205481565b6104a9610555366004613a7d565b610d48565b6104a9610568366004613a06565b610d59565b6103f461057b366004613a34565b6001600160a01b03919091166000908152601060209081526040808320938352929052205490565b6105ab601281565b60405160ff90911681526020016103e2565b6104a96105cb366004613a60565b610ff0565b6104a96105de366004613a7d565b61115a565b6103d66105f1366004613a34565b611175565b610609610604366004613979565b611188565b60408051600f95860b81529390940b60208401529282015260608101919091526080016103e2565b60015461047e906001600160a01b031681565b6104a9610652366004613a06565b6111cf565b610448604051806040016040528060058152602001640312e302e360dc1b81525081565b610514610689366004613a06565b611340565b61047e611383565b6103f46106a4366004613a06565b60009081526003602052604090206001015490565b61047e6106c7366004613a06565b6000908152600d60205260409020546001600160a01b031690565b6103f46106f0366004613a60565b6113f1565b6103f4610703366004613a06565b61140f565b610609610716366004613a06565b600660205260009081526040902080546001820154600290920154600f82810b93600160801b909304900b919084565b6103f4610754366004613979565b61146f565b61047e61147b565b6103d661076f366004613a06565b600a6020526000908152604090205460ff1681565b6103f460055481565b6104a961079b366004613a60565b6114c5565b6103f46107ae366004613a06565b61166f565b6104a96107c1366004613979565b611811565b6104a96107d4366004613acc565b611a14565b6104a96107e7366004613979565b611a99565b61081a6107fa366004613a06565b60036020526000908152604090208054600190910154600f9190910b9082565b60408051600f9390930b83526020830191909152016103e2565b6103f4610842366004613979565b611b8f565b6104a9610855366004613b1b565b611bd0565b6104a9610868366004613a06565b611cfd565b6103d661087b366004613a60565b611d61565b6104a9611dd0565b610448610896366004613a06565b611e10565b6104a96108a9366004613979565b611ebd565b6103f46108bc366004613979565b612013565b6103f46108cf366004613a06565b60086020526000908152604090205481565b6103f46108ef366004613a06565b61201f565b6103d6610902366004613bfb565b6001600160a01b03918216600090815260126020908152604080832093909416825291909152205460ff1690565b6103f461093e366004613c29565b612047565b6103f4630784ce0081565b61051461095c366004613a06565b600960205260009081526040902054600f0b81565b61047e7f000000000000000000000000000000000000000000000000000000000000000081565b6104a96109a6366004613a06565b612089565b6103d66109b9366004613a60565b600b6020526000908152604090205460ff1681565b600082815260076020526040812082633b9aca0081106109f0576109f0613c62565b600302016001015490505b92915050565b6000818152600d60205260409020546001600160a01b031680610a2357600080fd5b806001600160a01b0316836001600160a01b03161415610a4257600080fd5b6000828152600d60209081526040808320546001600160a01b0385811685526012845282852033808752945291909320549216149060ff168180610a835750805b610a8c57600080fd5b6000848152600e602052604080822080546001600160a01b0319166001600160a01b0389811691821790925591518793918716917f8c5be1e5ebec7d5bd14f71427d1e84f3dd0314c0f7b2291e5b200ac8c7c3b92591a45050505050565b60026000541415610b165760405162461bcd60e51b8152600401610b0d90613c78565b60405180910390fd5b600260009081558281526003602090815260409182902082518084019093528054600f0b8352600101549082015281610b4e57600080fd5b60008160000151600f0b13610b9e5760405162461bcd60e51b8152602060048201526016602482015275139bc8195e1a5cdd1a5b99c81b1bd8dac8199bdd5b9960521b6044820152606401610b0d565b42816020015111610bc15760405162461bcd60e51b8152600401610b0d90613caf565b610bd08383600084600061213f565b5050600160005550565b60015460408051638da5cb5b60e01b8152905133926001600160a01b031691638da5cb5b9160048083019260209291908290030181865afa158015610c23573d6000803e3d6000fd5b505050506040513d601f19601f82011682018060405250810190610c479190613cf3565b6001600160a01b031614610c9d5760405162461bcd60e51b815260206004820181905260248201527f4f776e61626c653a2063616c6c6572206973206e6f7420746865206f776e65726044820152606401610b0d565b6001600160a01b038116610ce65760405162461bcd60e51b815260206004820152601060248201526f3130b2103732bb9037b832b930ba37b960811b6044820152606401610b0d565b600180546001600160a01b038381166001600160a01b0319831681179093556040519116919082907f3ccbb406b985dd76fe05e172b432487a2ff9fe4257642d3acc350f167cb1d57790600090a35050565b6000610d434261140f565b905090565b610d5483838333612344565b505050565b60026000541415610d7c5760405162461bcd60e51b8152600401610b0d90613c78565b6002600055610d8b338261241e565b610d9757610d97613d10565b6000818152600a602052604090205460ff1615610dc65760405162461bcd60e51b8152600401610b0d90613d26565b60008181526003602090815260409182902082518084019093528054600f0b835260010154908201819052421015610e395760405162461bcd60e51b8152602060048201526016602482015275546865206c6f636b206469646e27742065787069726560501b6044820152606401610b0d565b8051604080518082018252600080825260208083018281528783526003909152929020905181546001600160801b0319166001600160801b039091161781559051600190910155600254600f9190910b90610e948282613d5e565b6002556040805180820190915260008082526020820152610eb89085908590612484565b60405163a9059cbb60e01b8152336004820152602481018390527f00000000000000000000000000000000000000000000000000000000000000006001600160a01b03169063a9059cbb906044015b6020604051808303816000875af1158015610f26573d6000803e3d6000fd5b505050506040513d601f19601f82011682018060405250810190610f4a9190613d75565b610f5657610f56613d10565b610f5f84612add565b60408051858152602081018490524281830152905133917f02f25270a4d87bea75db541cdfe559334a275b4a233520ed6c0a2429667cca94919081900360600190a27f5e2aa66efd74cce82b21852e317e5490d9ecc9e6bb953ae24d90851258cc2f5c81610fcd8482613d5e565b6040805192835260208301919091520160405180910390a1505060016000555050565b6001546040805163570ca73560e01b8152905133926001600160a01b03169163570ca7359160048083019260209291908290030181865afa158015611039573d6000803e3d6000fd5b505050506040513d601f19601f8201168201806040525081019061105d9190613cf3565b6001600160a01b0316146110a25760405162461bcd60e51b815260206004820152600c60248201526b3737ba1037b832b930ba37b960a11b6044820152606401610b0d565b6001600160a01b0381166000908152600b602052604090205460ff1615156001146111025760405162461bcd60e51b815260206004820152601060248201526f1059191c995cdcc81b9bc8195e1a5cdd60821b6044820152606401610b0d565b6001600160a01b0381166000818152600b6020908152604091829020805460ff1916905590519182527f127991bbd1c9df376a37f8311f693c9ac6efa87dda46e3518437ffd7d64cd17091015b60405180910390a150565b610d5483838360405180602001604052806000815250611bd0565b6000611181838361241e565b9392505050565b600760205281600052604060002081633b9aca0081106111a757600080fd5b6003020180546001820154600290920154600f82810b9550600160801b90920490910b925084565b600260005414156111f25760405162461bcd60e51b8152600401610b0d90613c78565b6002600055611201338261241e565b61120d5761120d613d10565b6000818152600a60209081526040808320805460ff19169055600382529182902082518084019093528054600f0b83526001015490820181905242101561128f5760405162461bcd60e51b8152602060048201526016602482015275546865206c6f636b206469646e27742065787069726560501b6044820152606401610b0d565b8051604080518082018252600080825260208083018281528783526003909152929020905181546001600160801b0319166001600160801b039091161781559051600190910155600254600f9190910b906112ea8282613d5e565b60025560405163a9059cbb60e01b8152336004820152602481018390527f00000000000000000000000000000000000000000000000000000000000000006001600160a01b03169063a9059cbb90604401610f07565b6000818152600860209081526040808320546007909252822081633b9aca00811061136d5761136d613c62565b6003020154600160801b9004600f0b9392505050565b6001546040805163570ca73560e01b815290516000926001600160a01b03169163570ca7359160048083019260209291908290030181865afa1580156113cd573d6000803e3d6000fd5b505050506040513d601f19601f82011682018060405250810190610d439190613cf3565b6001600160a01b0381166000908152600f60205260408120546109fb565b600554600081815260066020908152604080832081516080810183528154600f81810b8352600160801b909104900b938101939093526001810154918301919091526002015460608201529091906114678185612b9c565b949350505050565b60006111818383612cf8565b60015460408051638da5cb5b60e01b815290516000926001600160a01b031691638da5cb5b9160048083019260209291908290030181865afa1580156113cd573d6000803e3d6000fd5b6001546040805163570ca73560e01b8152905133926001600160a01b03169163570ca7359160048083019260209291908290030181865afa15801561150e573d6000803e3d6000fd5b505050506040513d601f19601f820116820180604052508101906115329190613cf3565b6001600160a01b0316146115775760405162461bcd60e51b815260206004820152600c60248201526b3737ba1037b832b930ba37b960a11b6044820152606401610b0d565b6001600160a01b0381166115b95760405162461bcd60e51b815260206004820152600960248201526830206164647265737360b81b6044820152606401610b0d565b6001600160a01b0381166000908152600b602052604090205460ff161561161b5760405162461bcd60e51b81526020600482015260166024820152754164647265737320616c72656164792065786973747360501b6044820152606401610b0d565b6001600160a01b0381166000818152600b6020908152604091829020805460ff1916600117905590519182527fd0f1faec010b3b1384e0407d8df907b92913d2e83b3407a77051eacebe4fe214910161114f565b60004382111561168157611681613d10565b60055460006116908483612fd5565b600081815260066020908152604080832081516080810183528154600f81810b8352600160801b909104900b938101939093526001810154918301919091526002015460608201529192508383101561179f5760006006816116f3866001613d92565b8152602080820192909252604090810160002081516080810183528154600f81810b8352600160801b909104900b9381019390935260018101549183019190915260020154606080830182905285015191925014611799578260600151816060015161175f9190613d5e565b836040015182604001516117739190613d5e565b6060850151611782908a613d5e565b61178c9190613daa565b6117969190613ddf565b91505b506117ee565b438260600151146117ee5760608201516117b99043613d5e565b60408301516117c89042613d5e565b60608401516117d79089613d5e565b6117e19190613daa565b6117eb9190613ddf565b90505b611807828284604001516118029190613d92565b612b9c565b9695505050505050565b600260005414156118345760405162461bcd60e51b8152600401610b0d90613c78565b6002600055611843338361241e565b61184f5761184f613d10565b600082815260036020908152604080832081518083019092528054600f0b82526001015491810191909152907f0000000000000000000000000000000000000000000000000000000000000000806118a78542613d92565b6118b19190613ddf565b6118bb9190613daa565b9050428260200151116118ff5760405162461bcd60e51b815260206004820152600c60248201526b131bd8dac8195e1c1a5c995960a21b6044820152606401610b0d565b60008260000151600f0b1361194a5760405162461bcd60e51b8152602060048201526011602482015270139bdd1a1a5b99c81a5cc81b1bd8dad959607a1b6044820152606401610b0d565b8160200151811161199d5760405162461bcd60e51b815260206004820152601f60248201527f43616e206f6e6c7920696e637265617365206c6f636b206475726174696f6e006044820152606401610b0d565b6119ab630784ce0042613d92565b8111156119fa5760405162461bcd60e51b815260206004820152601e60248201527f566f74696e67206c6f636b2063616e2062652034207965617273206d617800006044820152606401610b0d565b611a098460008385600361213f565b505060016000555050565b6001600160a01b038216331415611a2d57611a2d613d10565b3360008181526012602090815260408083206001600160a01b03871680855290835292819020805460ff191686151590811790915590519081529192917f17307eab39ab6107e8899845ad3d59bd9653f200f220920489ca2b5937696c31910160405180910390a35050565b60026000541415611abc5760405162461bcd60e51b8152600401610b0d90613c78565b6002600055611acb338361241e565b611ad757611ad7613d10565b60008281526003602090815260409182902082518084019093528054600f0b8352600101549082015281611b0d57611b0d613d10565b60008160000151600f0b13611b5d5760405162461bcd60e51b8152602060048201526016602482015275139bc8195e1a5cdd1a5b99c81b1bd8dac8199bdd5b9960521b6044820152606401610b0d565b42816020015111611b805760405162461bcd60e51b8152600401610b0d90613caf565b610bd08383600084600261213f565b600060026000541415611bb45760405162461bcd60e51b8152600401610b0d90613c78565b6002600055611bc483833361305f565b60016000559392505050565b611bdc84848433612344565b823b15611cf757604051630a85bd0160e11b81526001600160a01b0384169063150b7a0290611c15903390889087908790600401613df3565b6020604051808303816000875af1925050508015611c50575060408051601f3d908101601f19168201909252611c4d91810190613e26565b60015b611cf5573d808015611c7e576040519150601f19603f3d011682016040523d82523d6000602084013e611c83565b606091505b508051611ced5760405162461bcd60e51b815260206004820152603260248201527f4552433732313a207472616e7366657220746f206e6f6e20455243373231526560448201527131b2b4bb32b91034b6b83632b6b2b73a32b960711b6064820152608401610b0d565b805181602001fd5b505b50505050565b336000908152600b602052604090205460ff16611d495760405162461bcd60e51b815260206004820152600a60248201526937b7363c903b37ba32b960b11b6044820152606401610b0d565b6000908152600a60205260409020805460ff19169055565b600154604051631846d2f560e31b81526001600160a01b038381166004830152600092169063c23697a890602401602060405180830381865afa158015611dac573d6000803e3d6000fd5b505050506040513d601f19601f820116820180604052508101906109fb9190613d75565b611e0e600060405180604001604052806000600f0b8152602001600081525060405180604001604052806000600f0b81526020016000815250612484565b565b6000818152600d60205260409020546060906001600160a01b0316611e775760405162461bcd60e51b815260206004820152601b60248201527f517565727920666f72206e6f6e6578697374656e7420746f6b656e00000000006044820152606401610b0d565b60008281526003602090815260409182902082518084019093528054600f0b8352600101549082015261118183611eae8142613247565b60208401518451600f0b613319565b6000828152600a602052604090205460ff1615611eec5760405162461bcd60e51b8152600401610b0d90613d26565b80821415611ef957600080fd5b611f03338361241e565b611f0c57600080fd5b611f16338261241e565b611f1f57600080fd5b6000828152600360208181526040808420815180830183528154600f90810b825260019283015482860190815288885295855283872084518086019095528054820b855290920154938301849052805194519095929490910b921115611f89578260200151611f8f565b83602001515b604080518082018252600080825260208083018281528b835260038252848320935184546001600160801b0319166001600160801b0390911617845551600190930192909255825180840190935280835290820152909150611ff49087908690612484565b611ffd86612add565b61200b85838386600461213f565b505050505050565b60006111818383613247565b60008181526004602052604081205443141561203d57506000919050565b6109fb8242613247565b60006002600054141561206c5760405162461bcd60e51b8152600401610b0d90613c78565b600260005561207c84848461305f565b6001600055949350505050565b336000908152600b602052604090205460ff166120d55760405162461bcd60e51b815260206004820152600a60248201526937b7363c903b37ba32b960b11b6044820152606401610b0d565b6000818152600a602052604090205460ff16156121245760405162461bcd60e51b815260206004820152600d60248201526c1d1bdad95b9259081d9bdd1959609a1b6044820152606401610b0d565b6000908152600a60205260409020805460ff19166001179055565b600254829061214e8682613d92565b6002556040805180820190915260008082526020820152825160208085015190830152600f0b8152825187908490612187908390613e43565b600f0b905250851561219b57602083018690525b6000888152600360209081526040909120845181546001600160801b0319166001600160801b03909116178155908401516001909101556121dd888285612484565b3387158015906121ff575060048560048111156121fc576121fc613e92565b14155b156122a9576040516323b872dd60e01b81526001600160a01b038281166004830152306024830152604482018a90527f000000000000000000000000000000000000000000000000000000000000000016906323b872dd906064016020604051808303816000875af1158015612279573d6000803e3d6000fd5b505050506040513d601f19601f8201168201806040525081019061229d9190613d75565b6122a9576122a9613d10565b8360200151816001600160a01b03167fff04ccafc360e16b67d682d17bd9503c4c6b9a131f6be6325762dc9ffc7de6248b8b89426040516122ed9493929190613ea8565b60405180910390a37f5e2aa66efd74cce82b21852e317e5490d9ecc9e6bb953ae24d90851258cc2f5c836123218a82613d92565b6040805192835260208301919091520160405180910390a1505050505050505050565b6000828152600a602052604090205460ff16156123735760405162461bcd60e51b8152600401610b0d90613d26565b61237d818361241e565b6123b25760405162461bcd60e51b8152602060048201526006602482015265756e6b6e6f7760d01b6044820152606401610b0d565b6123bc8483613450565b6123c684836134b7565b6123d08383613538565b6000828152600460205260408082204390555183916001600160a01b0380871692908816917fddf252ad1be2c89b69c2b068fc378daa952ba7f163c4a11628f55a4df523b3ef91a450505050565b6000818152600d6020908152604080832054600e8352818420546001600160a01b039182168086526012855283862088841680885295529285205492938085149392909116149060ff1682806124715750815b806124795750805b979650505050505050565b604080516080810182526000808252602082018190529181018290526060810191909152604080516080810182526000808252602082018190529181018290526060810191909152600554600090819087156125f0574287602001511180156124f4575060008760000151600f0b135b1561253957865161250a90630784ce0090613ee6565b600f0b602080870191909152870151612524904290613d5e565b85602001516125339190613f24565b600f0b85525b428660200151118015612553575060008660000151600f0b135b1561259857855161256990630784ce0090613ee6565b600f0b602080860191909152860151612583904290613d5e565b84602001516125929190613f24565b600f0b84525b602080880151600090815260098252604090205490870151600f9190910b9350156125f0578660200151866020015114156125d5578291506125f0565b602080870151600090815260099091526040902054600f0b91505b604080516080810182526000808252602082015242918101919091524360608201528115612665575060008181526006602090815260409182902082516080810184528154600f81810b8352600160801b909104900b9281019290925260018101549282019290925260029091015460608201525b6040810151816000428310156126b25760408401516126849042613d5e565b60608501516126939043613d5e565b6126a590670de0b6b3a7640000613daa565b6126af9190613ddf565b90505b60007f00000000000000000000000000000000000000000000000000000000000000006126df8186613ddf565b6126e99190613daa565b905060005b60ff811015612881576127217f000000000000000000000000000000000000000000000000000000000000000083613d92565b915060004283111561273557429250612749565b50600082815260096020526040902054600f0b5b6127538684613d5e565b87602001516127629190613f24565b87518890612771908390613fb9565b600f0b90525060208701805182919061278b908390613e43565b600f90810b90915288516000910b121590506127a657600087525b60008760200151600f0b12156127be57600060208801525b60408088018490528501519295508592670de0b6b3a7640000906127e29085613d5e565b6127ec9086613daa565b6127f69190613ddf565b85606001516128059190613d92565b6060880152612815600189613d92565b97504283141561282b5750436060870152612881565b6000888152600660209081526040918290208951918a01516001600160801b03908116600160801b02921691909117815590880151600182015560608801516002909101555061287a81614009565b90506126ee565b505060058590558b1561290c57886020015188602001516128a29190613fb9565b846020018181516128b39190613e43565b600f0b905250885188516128c79190613fb9565b845185906128d6908390613e43565b600f90810b90915260208601516000910b121590506128f757600060208501525b60008460000151600f0b121561290c57600084525b6000858152600660209081526040918290208651918701516001600160801b03908116600160801b02921691909117815590850151600182015560608501516002909101558b15612acf57428b6020015111156129c45760208901516129729088613e43565b96508a602001518a6020015114156129965760208801516129939088613fb9565b96505b60208b810151600090815260099091526040902080546001600160801b0319166001600160801b0389161790555b428a602001511115612a1f578a602001518a602001511115612a1f5760208801516129ef9087613fb9565b60208b810151600090815260099091526040902080546001600160801b0319166001600160801b03831617905595505b60008c815260086020526040812054612a39906001613d92565b905080600860008f815260200190815260200160002081905550428960400181815250504389606001818152505088600760008f815260200190815260200160002082633b9aca008110612a8f57612a8f613c62565b825160208401516001600160801b03908116600160801b029116176003919091029190910190815560408201516001820155606090910151600290910155505b505050505050505050505050565b612ae7338261241e565b612b335760405162461bcd60e51b815260206004820181905260248201527f63616c6c6572206973206e6f74206f776e6572206e6f7220617070726f7665646044820152606401610b0d565b6000818152600d60205260408120546001600160a01b031690612b569083610a01565b612b6033836134b7565b60405182906000906001600160a01b038416907fddf252ad1be2c89b69c2b068fc378daa952ba7f163c4a11628f55a4df523b3ef908390a45050565b60008083905060007f00000000000000000000000000000000000000000000000000000000000000007f00000000000000000000000000000000000000000000000000000000000000008360400151612bf59190613ddf565b612bff9190613daa565b905060005b60ff811015612cd057612c377f000000000000000000000000000000000000000000000000000000000000000083613d92565b9150600085831115612c4b57859250612c5f565b50600082815260096020526040902054600f0b5b6040840151612c6e9084613d5e565b8460200151612c7d9190613f24565b84518590612c8c908390613fb9565b600f0b90525082861415612ca05750612cd0565b8084602001818151612cb29190613e43565b600f0b9052505060408301829052612cc981614009565b9050612c04565b5060008260000151600f0b1215612ce657600082525b50516001600160801b03169392505050565b600043821115612d0a57612d0a613d10565b600083815260086020526040812054815b6080811015612dae57818310612d3057612dae565b60006002612d3e8486613d92565b612d49906001613d92565b612d539190613ddf565b6000888152600760205260409020909150869082633b9aca008110612d7a57612d7a613c62565b600302016002015411612d8f57809350612d9d565b612d9a600182613d5e565b92505b50612da781614009565b9050612d1b565b50600085815260076020526040812083633b9aca008110612dd157612dd1613c62565b60408051608081018252600392909202929092018054600f81810b8452600160801b909104900b602083015260018101549282019290925260029091015460608201526005549091506000612e268783612fd5565b600081815260066020908152604080832081516080810183528154600f81810b8352600160801b909104900b938101939093526001810154918301919091526002015460608201529192508084841015612f05576000600681612e8a876001613d92565b8152602080820192909252604090810160002081516080810183528154600f81810b8352600160801b909104900b93810193909352600181015491830191909152600201546060808301829052860151919250612ee79190613d5e565b925083604001518160400151612efd9190613d5e565b915050612f29565b6060830151612f149043613d5e565b9150826040015142612f269190613d5e565b90505b60408301518215612f66578284606001518c612f459190613d5e565b612f4f9084613daa565b612f599190613ddf565b612f639082613d92565b90505b6040870151612f759082613d5e565b8760200151612f849190613f24565b87518890612f93908390613fb9565b600f90810b90915288516000910b129050612fc357505093516001600160801b031696506109fb95505050505050565b600099505050505050505050506109fb565b60008082815b608081101561305557818310612ff057613055565b60006002612ffe8486613d92565b613009906001613d92565b6130139190613ddf565b600081815260066020526040902060020154909150871061303657809350613044565b613041600182613d5e565b92505b5061304e81614009565b9050612fdb565b5090949350505050565b6000807f00000000000000000000000000000000000000000000000000000000000000008061308e8642613d92565b6130989190613ddf565b6130a29190613daa565b9050600085116130dd5760405162461bcd60e51b8152600401610b0d90602080825260049082015263076203e360e41b604082015260600190565b6130e6836113f1565b156131255760405162461bcd60e51b815260206004820152600f60248201526e1b195cdcc81d1a185b880c481b999d608a1b6044820152606401610b0d565b4281116131835760405162461bcd60e51b815260206004820152602660248201527f43616e206f6e6c79206c6f636b20756e74696c2074696d6520696e207468652060448201526566757475726560d01b6064820152608401610b0d565b613191630784ce0042613d92565b8111156131e05760405162461bcd60e51b815260206004820152601e60248201527f566f74696e67206c6f636b2063616e2062652034207965617273206d617800006044820152606401610b0d565b600c600081546131ef90614009565b90915550600c5461320084826135ce565b5060008181526003602090815260409182902082518084019093528054600f0b83526001908101549183019190915261323e9183918991869161213f565b95945050505050565b600082815260086020526040812054806132655760009150506109fb565b600084815260076020526040812082633b9aca00811061328757613287613c62565b60408051608081018252600392909202929092018054600f81810b8452600160801b909104900b6020830152600181015492820183905260020154606082015291506132d39085614024565b81602001516132e29190613f24565b815182906132f1908390613fb9565b600f90810b90915282516000910b1215905061330c57600081525b51600f0b91506109fb9050565b606060405180610120016040528060fd81526020016143aa60fd913990508061334186613631565b604051602001613352929190614063565b60405160208183030381529060405290508061336d85613631565b60405160200161337e9291906140df565b60405160208183030381529060405290508061339984613631565b6040516020016133aa92919061415f565b6040516020818303038152906040529050806133c583613631565b6040516020016133d69291906141e0565b604051602081830303815290604052905060006134236133f587613631565b6133fe8461372f565b60405160200161340f92919061423b565b60405160208183030381529060405261372f565b9050806040516020016134369190614350565b604051602081830303815290604052915050949350505050565b6000818152600d60205260409020546001600160a01b0383811691161461347957613479613d10565b6000818152600e60205260409020546001600160a01b0316156134b3576000818152600e6020526040902080546001600160a01b03191690555b5050565b6000818152600d60205260409020546001600160a01b038381169116146134e0576134e0613d10565b6000818152600d6020526040902080546001600160a01b03191690556135068282613883565b6001600160a01b0382166000908152600f6020526040812080546001929061352f908490613d5e565b90915550505050565b6000818152600d60205260409020546001600160a01b03161561355d5761355d613d10565b6000818152600d6020908152604080832080546001600160a01b0319166001600160a01b038716908117909155808452600f8084528285208054601086528487208188528652848720889055878752601186529386209390935590845290915280546001929061352f908490613d92565b60006001600160a01b0383166135e6576135e6613d10565b6135f08383613538565b60405182906001600160a01b038516906000907fddf252ad1be2c89b69c2b068fc378daa952ba7f163c4a11628f55a4df523b3ef908290a450600192915050565b6060816136555750506040805180820190915260018152600360fc1b602082015290565b8160005b811561367f578061366981614009565b91506136789050600a83613ddf565b9150613659565b60008167ffffffffffffffff81111561369a5761369a613b05565b6040519080825280601f01601f1916602001820160405280156136c4576020820181803683370190505b5090505b8415611467576136d9600183613d5e565b91506136e6600a86614395565b6136f1906030613d92565b60f81b81838151811061370657613706613c62565b60200101906001600160f81b031916908160001a905350613728600a86613ddf565b94506136c8565b606081516000141561374f57505060408051602081019091526000815290565b60006040518060600160405280604081526020016144a7604091399050600060038451600261377e9190613d92565b6137889190613ddf565b613793906004613daa565b67ffffffffffffffff8111156137ab576137ab613b05565b6040519080825280601f01601f1916602001820160405280156137d5576020820181803683370190505b509050600182016020820185865187015b80821015613841576003820191508151603f8160121c168501518453600184019350603f81600c1c168501518453600184019350603f8160061c168501518453600184019350603f81168501518453506001830192506137e6565b505060038651066001811461385d576002811461387057613878565b603d6001830353603d6002830353613878565b603d60018303535b509195945050505050565b6001600160a01b0382166000908152600f60205260408120546138a890600190613d5e565b600083815260116020526040902054909150808214156138f8576001600160a01b038416600090815260106020908152604080832085845282528083208390558583526011909152812055611cf7565b6001600160a01b039390931660009081526010602090815260408083209383529281528282208054868452848420819055835260119091528282209490945592839055908252812055565b6001600160e01b03198116811461395957600080fd5b50565b60006020828403121561396e57600080fd5b813561118181613943565b6000806040838503121561398c57600080fd5b50508035926020909101359150565b60005b838110156139b657818101518382015260200161399e565b83811115611cf75750506000910152565b600081518084526139df81602086016020860161399b565b601f01601f19169290920160200192915050565b60208152600061118160208301846139c7565b600060208284031215613a1857600080fd5b5035919050565b6001600160a01b038116811461395957600080fd5b60008060408385031215613a4757600080fd5b8235613a5281613a1f565b946020939093013593505050565b600060208284031215613a7257600080fd5b813561118181613a1f565b600080600060608486031215613a9257600080fd5b8335613a9d81613a1f565b92506020840135613aad81613a1f565b929592945050506040919091013590565b801515811461395957600080fd5b60008060408385031215613adf57600080fd5b8235613aea81613a1f565b91506020830135613afa81613abe565b809150509250929050565b634e487b7160e01b600052604160045260246000fd5b60008060008060808587031215613b3157600080fd5b8435613b3c81613a1f565b93506020850135613b4c81613a1f565b925060408501359150606085013567ffffffffffffffff80821115613b7057600080fd5b818701915087601f830112613b8457600080fd5b813581811115613b9657613b96613b05565b604051601f8201601f19908116603f01168101908382118183101715613bbe57613bbe613b05565b816040528281528a6020848701011115613bd757600080fd5b82602086016020830137600060208483010152809550505050505092959194509250565b60008060408385031215613c0e57600080fd5b8235613c1981613a1f565b91506020830135613afa81613a1f565b600080600060608486031215613c3e57600080fd5b83359250602084013591506040840135613c5781613a1f565b809150509250925092565b634e487b7160e01b600052603260045260246000fd5b6020808252601f908201527f5265656e7472616e637947756172643a207265656e7472616e742063616c6c00604082015260600190565b60208082526024908201527f43616e6e6f742061646420746f2065787069726564206c6f636b2e20576974686040820152636472617760e01b606082015260800190565b600060208284031215613d0557600080fd5b815161118181613a1f565b634e487b7160e01b600052600160045260246000fd5b602080825260089082015267185d1d1858da195960c21b604082015260600190565b634e487b7160e01b600052601160045260246000fd5b600082821015613d7057613d70613d48565b500390565b600060208284031215613d8757600080fd5b815161118181613abe565b60008219821115613da557613da5613d48565b500190565b6000816000190483118215151615613dc457613dc4613d48565b500290565b634e487b7160e01b600052601260045260246000fd5b600082613dee57613dee613dc9565b500490565b6001600160a01b0385811682528416602082015260408101839052608060608201819052600090611807908301846139c7565b600060208284031215613e3857600080fd5b815161118181613943565b600081600f0b83600f0b600082128260016001607f1b0303821381151615613e6d57613e6d613d48565b8260016001607f1b0319038212811615613e8957613e89613d48565b50019392505050565b634e487b7160e01b600052602160045260246000fd5b848152602081018490526080810160058410613ed457634e487b7160e01b600052602160045260246000fd5b60408201939093526060015292915050565b600081600f0b83600f0b80613efd57613efd613dc9565b60016001607f1b0319821460001982141615613f1b57613f1b613d48565b90059392505050565b600081600f0b83600f0b60016001607f1b03600082136000841383830485118282161615613f5457613f54613d48565b60016001607f1b03196000851282811687830587121615613f7757613f77613d48565b60008712925085820587128484161615613f9357613f93613d48565b85850587128184161615613fa957613fa9613d48565b5050509290910295945050505050565b600081600f0b83600f0b600081128160016001607f1b031901831281151615613fe457613fe4613d48565b8160016001607f1b03018313811615613fff57613fff613d48565b5090039392505050565b600060001982141561401d5761401d613d48565b5060010190565b60008083128015600160ff1b85018412161561404257614042613d48565b6001600160ff1b038401831381161561405d5761405d613d48565b50500390565b6000835161407581846020880161399b565b6503a37b5b2b7160d51b908301908152835161409881600684016020880161399b565b7f3c2f746578743e3c7465787420783d2231302220793d2234302220636c61737360069290910191820152671e913130b9b2911f60c11b6026820152602e01949350505050565b600083516140f181846020880161399b565b6903130b630b731b2a7b3160b51b908301908152835161411881600a84016020880161399b565b7f3c2f746578743e3c7465787420783d2231302220793d2236302220636c617373600a9290910191820152671e913130b9b2911f60c11b602a820152603201949350505050565b6000835161417181846020880161399b565b6a03637b1b5b2b22fb2b732160ad1b908301908152835161419981600b84016020880161399b565b7f3c2f746578743e3c7465787420783d2231302220793d2238302220636c617373600b9290910191820152671e913130b9b2911f60c11b602b820152603301949350505050565b600083516141f281846020880161399b565b6503b30b63ab2960d51b908301908152835161421581600684016020880161399b565b6c1e17ba32bc3a1f1e17b9bb339f60991b60069290910191820152601301949350505050565b6f7b226e616d65223a20226c6f636b202360801b8152825160009061426781601085016020880161399b565b7f222c20226465736372697074696f6e223a2022536f6c69646c79206c6f636b736010918401918201527f2c2063616e206265207573656420746f20626f6f73742067617567652079696560308201527f6c64732c20766f7465206f6e20746f6b656e20656d697373696f6e2c20616e6460508201527f207265636569766520627269626573222c2022696d616765223a2022646174616070820152750e9a5b5859d94bdcdd99cade1b5b0ed8985cd94d8d0b60521b609082015283516143358160a684016020880161399b565b61227d60f01b60a6929091019182015260a801949350505050565b7f646174613a6170706c69636174696f6e2f6a736f6e3b6261736536342c00000081526000825161438881601d85016020870161399b565b91909101601d0192915050565b6000826143a4576143a4613dc9565b50069056fe3c73766720786d6c6e733d22687474703a2f2f7777772e77332e6f72672f323030302f73766722207072657365727665417370656374526174696f3d22784d696e594d696e206d656574222076696577426f783d223020302033353020333530223e3c7374796c653e2e62617365207b2066696c6c3a2077686974653b20666f6e742d66616d696c793a2073657269663b20666f6e742d73697a653a20313470783b207d3c2f7374796c653e3c726563742077696474683d223130302522206865696768743d2231303025222066696c6c3d22626c61636b22202f3e3c7465787420783d2231302220793d2232302220636c6173733d2262617365223e4142434445464748494a4b4c4d4e4f505152535455565758595a6162636465666768696a6b6c6d6e6f707172737475767778797a303132333435363738392b2fa26469706673582212205fa351cff9175f7489b2493ee97fd65351f2defc6ace29571d3443910451cb8b64736f6c634300080a0033ddf252ad1be2c89b69c2b068fc378daa952ba7f163c4a11628f55a4df523b3ef",
  "linkReferences": {},
  "deployedLinkReferences": {}
}